{"abi":[{"type":"constructor","inputs":[{"name":"_baseChainAssetPrecision","type":"uint32","internalType":"uint32"},{"name":"_baseChainBridgeAddress","type":"string","internalType":"string"},{"name":"_baseChainAssetDenomination","type":"string","internalType":"string"},{"name":"_sequencerWithdrawalFee","type":"uint256","internalType":"uint256"},{"name":"_ibcWithdrawalFee","type":"uint256","internalType":"uint256"},{"name":"_feeRecipient","type":"address","internalType":"address"}],"stateMutability":"nonpayable"},{"type":"function","name":"ACCUMULATED_FEES","inputs":[],"outputs":[{"name":"","type":"uint256","internalType":"uint256"}],"stateMutability":"view"},{"type":"function","name":"BASE_CHAIN_ASSET_DENOMINATION","inputs":[],"outputs":[{"name":"","type":"string","internalType":"string"}],"stateMutability":"view"},{"type":"function","name":"BASE_CHAIN_ASSET_PRECISION","inputs":[],"outputs":[{"name":"","type":"uint32","internalType":"uint32"}],"stateMutability":"view"},{"type":"function","name":"BASE_CHAIN_BRIDGE_ADDRESS","inputs":[],"outputs":[{"name":"","type":"string","internalType":"string"}],"stateMutability":"view"},{"type":"function","name":"FEE_RECIPIENT","inputs":[],"outputs":[{"name":"","type":"address","internalType":"address"}],"stateMutability":"view"},{"type":"function","name":"IBC_WITHDRAWAL_FEE","inputs":[],"outputs":[{"name":"","type":"uint256","internalType":"uint256"}],"stateMutability":"view"},{"type":"function","name":"SEQUENCER_WITHDRAWAL_FEE","inputs":[],"outputs":[{"name":"","type":"uint256","internalType":"uint256"}],"stateMutability":"view"},{"type":"function","name":"claimFees","inputs":[],"outputs":[],"stateMutability":"nonpayable"},{"type":"function","name":"owner","inputs":[],"outputs":[{"name":"","type":"address","internalType":"address"}],"stateMutability":"view"},{"type":"function","name":"renounceOwnership","inputs":[],"outputs":[],"stateMutability":"nonpayable"},{"type":"function","name":"setFeeRecipient","inputs":[{"name":"_newFeeRecipient","type":"address","internalType":"address"}],"outputs":[],"stateMutability":"nonpayable"},{"type":"function","name":"setIbcWithdrawalFee","inputs":[{"name":"_newFee","type":"uint256","internalType":"uint256"}],"outputs":[],"stateMutability":"nonpayable"},{"type":"function","name":"setSequencerWithdrawalFee","inputs":[{"name":"_newFee","type":"uint256","internalType":"uint256"}],"outputs":[],"stateMutability":"nonpayable"},{"type":"function","name":"transferOwnership","inputs":[{"name":"newOwner","type":"address","internalType":"address"}],"outputs":[],"stateMutability":"nonpayable"},{"type":"function","name":"withdrawToIbcChain","inputs":[{"name":"destinationChainAddress","type":"string","internalType":"string"},{"name":"memo","type":"string","internalType":"string"}],"outputs":[],"stateMutability":"payable"},{"type":"function","name":"withdrawToSequencer","inputs":[{"name":"destinationChainAddress","type":"string","internalType":"string"}],"outputs":[],"stateMutability":"payable"},{"type":"event","name":"Ics20Withdrawal","inputs":[{"name":"sender","type":"address","indexed":true,"internalType":"address"},{"name":"amount","type":"uint256","indexed":true,"internalType":"uint256"},{"name":"destinationChainAddress","type":"string","indexed":false,"internalType":"string"},{"name":"memo","type":"string","indexed":false,"internalType":"string"}],"anonymous":false},{"type":"event","name":"OwnershipTransferred","inputs":[{"name":"previousOwner","type":"address","indexed":true,"internalType":"address"},{"name":"newOwner","type":"address","indexed":true,"internalType":"address"}],"anonymous":false},{"type":"event","name":"SequencerWithdrawal","inputs":[{"name":"sender","type":"address","indexed":true,"internalType":"address"},{"name":"amount","type":"uint256","indexed":true,"internalType":"uint256"},{"name":"destinationChainAddress","type":"string","indexed":false,"internalType":"string"}],"anonymous":false},{"type":"error","name":"OwnableInvalidOwner","inputs":[{"name":"owner","type":"address","internalType":"address"}]},{"type":"error","name":"OwnableUnauthorizedAccount","inputs":[{"name":"account","type":"address","internalType":"address"}]}],"bytecode":{"object":"0x60c060405234801561001057600080fd5b5060405161112e38038061112e83398101604081905261002f9161026f565b338061005657604051631e4fbdf760e01b8152600060048201526024015b60405180910390fd5b61005f81610161565b5060128663ffffffff1611156100f35760405162461bcd60e51b815260206004820152604d60248201527f417374726961576974686472617765723a206261736520636861696e2061737360448201527f657420707265636973696f6e206d757374206265206c657373207468616e206f60648201526c0e440cae2eac2d840e8de40627609b1b608482015260a40161004d565b63ffffffff8616608052600161010986826103af565b50600261011685826103af565b50610122866012610484565b61012d90600a61058e565b60a052600392909255600455600580546001600160a01b0319166001600160a01b03909216919091179055506105a7915050565b600080546001600160a01b038381166001600160a01b0319831681178455604051919092169283917f8be0079c531659141344cd1fd0a4f28419497f9722a3daafe3b4186f6b6457e09190a35050565b634e487b7160e01b600052604160045260246000fd5b600082601f8301126101d857600080fd5b81516001600160401b03808211156101f2576101f26101b1565b604051601f8301601f19908116603f0116810190828211818310171561021a5761021a6101b1565b816040528381526020925086602085880101111561023757600080fd5b600091505b83821015610259578582018301518183018401529082019061023c565b6000602085830101528094505050505092915050565b60008060008060008060c0878903121561028857600080fd5b865163ffffffff8116811461029c57600080fd5b60208801519096506001600160401b03808211156102b957600080fd5b6102c58a838b016101c7565b965060408901519150808211156102db57600080fd5b506102e889828a016101c7565b606089015160808a015160a08b0151929750909550935090506001600160a01b038116811461031657600080fd5b809150509295509295509295565b600181811c9082168061033857607f821691505b60208210810361035857634e487b7160e01b600052602260045260246000fd5b50919050565b601f8211156103aa576000816000526020600020601f850160051c810160208610156103875750805b601f850160051c820191505b818110156103a657828155600101610393565b5050505b505050565b81516001600160401b038111156103c8576103c86101b1565b6103dc816103d68454610324565b8461035e565b602080601f83116001811461041157600084156103f95750858301515b600019600386901b1c1916600185901b1785556103a6565b600085815260208120601f198616915b8281101561044057888601518255948401946001909101908401610421565b508582101561045e5787850151600019600388901b60f8161c191681555b5050505050600190811b01905550565b634e487b7160e01b600052601160045260246000fd5b63ffffffff8281168282160390808211156104a1576104a161046e565b5092915050565b600181815b808511156104e35781600019048211156104c9576104c961046e565b808516156104d657918102915b93841c93908002906104ad565b509250929050565b6000826104fa57506001610588565b8161050757506000610588565b816001811461051d576002811461052757610543565b6001915050610588565b60ff8411156105385761053861046e565b50506001821b610588565b5060208310610133831016604e8410600b8410161715610566575081810a610588565b61057083836104a8565b80600019048211156105845761058461046e565b0290505b92915050565b60006105a063ffffffff8416836104eb565b9392505050565b60805160a051610b5b6105d36000396000818161034f01526104c90152600061014a0152610b5b6000f3fe6080604052600436106100f35760003560e01c8063b6476c7e1161008a578063e74b981b11610059578063e74b981b1461027b578063ebd090541461029b578063f2fde38b146102bb578063fc88d31b146102db57600080fd5b8063b6476c7e1461021c578063bab916d01461023e578063d294f09314610251578063db97dc981461026657600080fd5b80638da5cb5b116100c65780638da5cb5b146101a1578063a7eaa739146101d3578063a996e020146101f3578063ad2282471461020657600080fd5b80636f46384a146100f8578063715018a6146101215780637eb6dec7146101385780638897397914610181575b600080fd5b34801561010457600080fd5b5061010e60035481565b6040519081526020015b60405180910390f35b34801561012d57600080fd5b506101366102f1565b005b34801561014457600080fd5b5061016c7f000000000000000000000000000000000000000000000000000000000000000081565b60405163ffffffff9091168152602001610118565b34801561018d57600080fd5b5061013661019c3660046107a6565b610305565b3480156101ad57600080fd5b506000546001600160a01b03165b6040516001600160a01b039091168152602001610118565b3480156101df57600080fd5b506101366101ee3660046107a6565b610312565b610136610201366004610808565b61031f565b34801561021257600080fd5b5061010e60065481565b34801561022857600080fd5b50610231610414565b6040516101189190610874565b61013661024c3660046108c3565b6104a2565b34801561025d57600080fd5b50610136610588565b34801561027257600080fd5b506102316106b4565b34801561028757600080fd5b50610136610296366004610905565b6106c1565b3480156102a757600080fd5b506005546101bb906001600160a01b031681565b3480156102c757600080fd5b506101366102d6366004610905565b6106eb565b3480156102e757600080fd5b5061010e60045481565b6102f9610729565b6103036000610756565b565b61030d610729565b600455565b61031a610729565b600355565b3460045480821161034b5760405162461bcd60e51b815260040161034290610935565b60405180910390fd5b60007f00000000000000000000000000000000000000000000000000000000000000006103788385610998565b61038291906109b1565b1161039f5760405162461bcd60e51b8152600401610342906109d3565b600454600660008282546103b39190610a61565b90915550506004546103c59034610998565b336001600160a01b03167f0c64e29a5254a71c7f4e52b3d2d236348c80e00a00ba2e1961962bd2827c03fb888888886040516104049493929190610a9d565b60405180910390a3505050505050565b6002805461042190610acf565b80601f016020809104026020016040519081016040528092919081815260200182805461044d90610acf565b801561049a5780601f1061046f5761010080835404028352916020019161049a565b820191906000526020600020905b81548152906001019060200180831161047d57829003601f168201915b505050505081565b346003548082116104c55760405162461bcd60e51b815260040161034290610935565b60007f00000000000000000000000000000000000000000000000000000000000000006104f28385610998565b6104fc91906109b1565b116105195760405162461bcd60e51b8152600401610342906109d3565b6003546006600082825461052d9190610a61565b909155505060035461053f9034610998565b336001600160a01b03167f0f4961cab7530804898499aa89f5ec81d1a73102e2e4a1f30f88e5ae3513ba2a868660405161057a929190610b09565b60405180910390a350505050565b6005546001600160a01b031633146105f45760405162461bcd60e51b815260206004820152602960248201527f41737472696142726964676561626c6545524332303a206f6e6c7920666565206044820152681c9958da5c1a595b9d60ba1b6064820152608401610342565b6005546006546040516000926001600160a01b031691908381818185875af1925050503d8060008114610643576040519150601f19603f3d011682016040523d82523d6000602084013e610648565b606091505b50509050806106ac5760405162461bcd60e51b815260206004820152602a60248201527f41737472696142726964676561626c6545524332303a20666565207472616e7360448201526919995c8819985a5b195960b21b6064820152608401610342565b506000600655565b6001805461042190610acf565b6106c9610729565b600580546001600160a01b0319166001600160a01b0392909216919091179055565b6106f3610729565b6001600160a01b03811661071d57604051631e4fbdf760e01b815260006004820152602401610342565b61072681610756565b50565b6000546001600160a01b031633146103035760405163118cdaa760e01b8152336004820152602401610342565b600080546001600160a01b038381166001600160a01b0319831681178455604051919092169283917f8be0079c531659141344cd1fd0a4f28419497f9722a3daafe3b4186f6b6457e09190a35050565b6000602082840312156107b857600080fd5b5035919050565b60008083601f8401126107d157600080fd5b50813567ffffffffffffffff8111156107e957600080fd5b60208301915083602082850101111561080157600080fd5b9250929050565b6000806000806040858703121561081e57600080fd5b843567ffffffffffffffff8082111561083657600080fd5b610842888389016107bf565b9096509450602087013591508082111561085b57600080fd5b50610868878288016107bf565b95989497509550505050565b60006020808352835180602085015260005b818110156108a257858101830151858201604001528201610886565b506000604082860101526040601f19601f8301168501019250505092915050565b600080602083850312156108d657600080fd5b823567ffffffffffffffff8111156108ed57600080fd5b6108f9858286016107bf565b90969095509350505050565b60006020828403121561091757600080fd5b81356001600160a01b038116811461092e57600080fd5b9392505050565b6020808252602d908201527f417374726961576974686472617765723a20696e73756666696369656e74207760408201526c69746864726177616c2066656560981b606082015260800190565b634e487b7160e01b600052601160045260246000fd5b818103818111156109ab576109ab610982565b92915050565b6000826109ce57634e487b7160e01b600052601260045260246000fd5b500490565b60208082526062908201527f417374726961576974686472617765723a20696e73756666696369656e74207660408201527f616c75652c206d7573742062652067726561746572207468616e203130202a2a60608201527f20283138202d20424153455f434841494e5f41535345545f505245434953494f6080820152614e2960f01b60a082015260c00190565b808201808211156109ab576109ab610982565b81835281816020850137506000828201602090810191909152601f909101601f19169091010190565b604081526000610ab1604083018688610a74565b8281036020840152610ac4818587610a74565b979650505050505050565b600181811c90821680610ae357607f821691505b602082108103610b0357634e487b7160e01b600052602260045260246000fd5b50919050565b602081526000610b1d602083018486610a74565b94935050505056fea2646970667358221220842bd8104ffc1c611919341f64a8277f2fc808138b97720a6dc1382e5670099064736f6c63430008190033","linkReferences":{}},"methodIdentifiers":{"ACCUMULATED_FEES()":"ad228247","BASE_CHAIN_ASSET_DENOMINATION()":"b6476c7e","BASE_CHAIN_ASSET_PRECISION()":"7eb6dec7","BASE_CHAIN_BRIDGE_ADDRESS()":"db97dc98","FEE_RECIPIENT()":"ebd09054","IBC_WITHDRAWAL_FEE()":"fc88d31b","SEQUENCER_WITHDRAWAL_FEE()":"6f46384a","claimFees()":"d294f093","owner()":"8da5cb5b","renounceOwnership()":"715018a6","setFeeRecipient(address)":"e74b981b","setIbcWithdrawalFee(uint256)":"88973979","setSequencerWithdrawalFee(uint256)":"a7eaa739","transferOwnership(address)":"f2fde38b","withdrawToIbcChain(string,string)":"a996e020","withdrawToSequencer(string)":"bab916d0"},"id":28}