{"abi":[{"type":"constructor","inputs":[{"name":"_baseChainAssetPrecision","type":"uint32","internalType":"uint32"},{"name":"_baseChainBridgeAddress","type":"string","internalType":"string"},{"name":"_baseChainAssetDenomination","type":"string","internalType":"string"}],"stateMutability":"nonpayable"},{"type":"function","name":"BASE_CHAIN_ASSET_DENOMINATION","inputs":[],"outputs":[{"name":"","type":"string","internalType":"string"}],"stateMutability":"view"},{"type":"function","name":"BASE_CHAIN_ASSET_PRECISION","inputs":[],"outputs":[{"name":"","type":"uint32","internalType":"uint32"}],"stateMutability":"view"},{"type":"function","name":"BASE_CHAIN_BRIDGE_ADDRESS","inputs":[],"outputs":[{"name":"","type":"string","internalType":"string"}],"stateMutability":"view"},{"type":"function","name":"withdrawToIbcChain","inputs":[{"name":"destinationChainAddress","type":"string","internalType":"string"},{"name":"memo","type":"string","internalType":"string"}],"outputs":[],"stateMutability":"payable"},{"type":"function","name":"withdrawToSequencer","inputs":[{"name":"destinationChainAddress","type":"string","internalType":"string"}],"outputs":[],"stateMutability":"payable"},{"type":"event","name":"Ics20Withdrawal","inputs":[{"name":"sender","type":"address","indexed":true,"internalType":"address"},{"name":"amount","type":"uint256","indexed":true,"internalType":"uint256"},{"name":"destinationChainAddress","type":"string","indexed":false,"internalType":"string"},{"name":"memo","type":"string","indexed":false,"internalType":"string"}],"anonymous":false},{"type":"event","name":"SequencerWithdrawal","inputs":[{"name":"sender","type":"address","indexed":true,"internalType":"address"},{"name":"amount","type":"uint256","indexed":true,"internalType":"uint256"},{"name":"destinationChainAddress","type":"string","indexed":false,"internalType":"string"}],"anonymous":false}],"bytecode":{"object":"0x60c06040523480156200001157600080fd5b5060405162000aed38038062000aed8339810160408190526200003491620001e0565b60128363ffffffff161115620000cc5760405162461bcd60e51b815260206004820152604d60248201527f417374726961576974686472617765723a206261736520636861696e2061737360448201527f657420707265636973696f6e206d757374206265206c657373207468616e206f60648201526c0e440cae2eac2d840e8de40627609b1b608482015260a40160405180910390fd5b63ffffffff83166080526000620000e48382620002f6565b506001620000f38282620002f6565b5062000101836012620003d8565b6200010e90600a620004fe565b60a0525062000519915050565b634e487b7160e01b600052604160045260246000fd5b600082601f8301126200014357600080fd5b81516001600160401b03808211156200016057620001606200011b565b604051601f8301601f19908116603f011681019082821181831017156200018b576200018b6200011b565b81604052838152602092508683858801011115620001a857600080fd5b600091505b83821015620001cc5785820183015181830184015290820190620001ad565b600093810190920192909252949350505050565b600080600060608486031215620001f657600080fd5b835163ffffffff811681146200020b57600080fd5b60208501519093506001600160401b03808211156200022957600080fd5b620002378783880162000131565b935060408601519150808211156200024e57600080fd5b506200025d8682870162000131565b9150509250925092565b600181811c908216806200027c57607f821691505b6020821081036200029d57634e487b7160e01b600052602260045260246000fd5b50919050565b601f821115620002f157600081815260208120601f850160051c81016020861015620002cc5750805b601f850160051c820191505b81811015620002ed57828155600101620002d8565b5050505b505050565b81516001600160401b038111156200031257620003126200011b565b6200032a8162000323845462000267565b84620002a3565b602080601f831160018114620003625760008415620003495750858301515b600019600386901b1c1916600185901b178555620002ed565b600085815260208120601f198616915b82811015620003935788860151825594840194600190910190840162000372565b5085821015620003b25787850151600019600388901b60f8161c191681555b5050505050600190811b01905550565b634e487b7160e01b600052601160045260246000fd5b63ffffffff828116828216039080821115620003f857620003f8620003c2565b5092915050565b600181815b8085111562000440578160001904821115620004245762000424620003c2565b808516156200043257918102915b93841c939080029062000404565b509250929050565b6000826200045957506001620004f8565b816200046857506000620004f8565b81600181146200048157600281146200048c57620004ac565b6001915050620004f8565b60ff841115620004a057620004a0620003c2565b50506001821b620004f8565b5060208310610133831016604e8410600b8410161715620004d1575081810a620004f8565b620004dd8383620003ff565b8060001904821115620004f457620004f4620003c2565b0290505b92915050565b60006200051263ffffffff84168362000448565b9392505050565b60805160a0516105a86200054560003960008181610104015261023401526000606101526105a86000f3fe60806040526004361061004a5760003560e01c80637eb6dec71461004f578063a996e0201461009d578063b6476c7e146100b2578063bab916d0146100d4578063db97dc98146100e7575b600080fd5b34801561005b57600080fd5b506100837f000000000000000000000000000000000000000000000000000000000000000081565b60405163ffffffff90911681526020015b60405180910390f35b6100b06100ab366004610315565b6100fc565b005b3480156100be57600080fd5b506100c761019e565b6040516100949190610381565b6100b06100e23660046103cf565b61022c565b3480156100f357600080fd5b506100c76102bf565b3460006101297f000000000000000000000000000000000000000000000000000000000000000083610411565b1161014f5760405162461bcd60e51b815260040161014690610433565b60405180910390fd5b34336001600160a01b03167f0c64e29a5254a71c7f4e52b3d2d236348c80e00a00ba2e1961962bd2827c03fb8787878760405161018f94939291906104ea565b60405180910390a35050505050565b600180546101ab9061051c565b80601f01602080910402602001604051908101604052809291908181526020018280546101d79061051c565b80156102245780601f106101f957610100808354040283529160200191610224565b820191906000526020600020905b81548152906001019060200180831161020757829003601f168201915b505050505081565b3460006102597f000000000000000000000000000000000000000000000000000000000000000083610411565b116102765760405162461bcd60e51b815260040161014690610433565b34336001600160a01b03167f0f4961cab7530804898499aa89f5ec81d1a73102e2e4a1f30f88e5ae3513ba2a85856040516102b2929190610556565b60405180910390a3505050565b600080546101ab9061051c565b60008083601f8401126102de57600080fd5b50813567ffffffffffffffff8111156102f657600080fd5b60208301915083602082850101111561030e57600080fd5b9250929050565b6000806000806040858703121561032b57600080fd5b843567ffffffffffffffff8082111561034357600080fd5b61034f888389016102cc565b9096509450602087013591508082111561036857600080fd5b50610375878288016102cc565b95989497509550505050565b600060208083528351808285015260005b818110156103ae57858101830151858201604001528201610392565b506000604082860101526040601f19601f8301168501019250505092915050565b600080602083850312156103e257600080fd5b823567ffffffffffffffff8111156103f957600080fd5b610405858286016102cc565b90969095509350505050565b60008261042e57634e487b7160e01b600052601260045260246000fd5b500490565b60208082526062908201527f417374726961576974686472617765723a20696e73756666696369656e74207660408201527f616c75652c206d7573742062652067726561746572207468616e203130202a2a60608201527f20283138202d20424153455f434841494e5f41535345545f505245434953494f6080820152614e2960f01b60a082015260c00190565b81835281816020850137506000828201602090810191909152601f909101601f19169091010190565b6040815260006104fe6040830186886104c1565b82810360208401526105118185876104c1565b979650505050505050565b600181811c9082168061053057607f821691505b60208210810361055057634e487b7160e01b600052602260045260246000fd5b50919050565b60208152600061056a6020830184866104c1565b94935050505056fea26469706673582212200920d06e30abbfc4fbecca5a191720dba8de459e1bd5854fb2aa7180485505c464736f6c63430008150033","linkReferences":{}},"methodIdentifiers":{"BASE_CHAIN_ASSET_DENOMINATION()":"b6476c7e","BASE_CHAIN_ASSET_PRECISION()":"7eb6dec7","BASE_CHAIN_BRIDGE_ADDRESS()":"db97dc98","withdrawToIbcChain(string,string)":"a996e020","withdrawToSequencer(string)":"bab916d0"},"id":26}