{"abi":[{"type":"constructor","inputs":[{"name":"_bridge","type":"address","internalType":"address"},{"name":"_baseChainAssetPrecision","type":"uint32","internalType":"uint32"},{"name":"_baseChainBridgeAddress","type":"string","internalType":"string"},{"name":"_baseChainAssetDenomination","type":"string","internalType":"string"},{"name":"_sequencerWithdrawalFee","type":"uint256","internalType":"uint256"},{"name":"_ibcWithdrawalFee","type":"uint256","internalType":"uint256"},{"name":"_feeRecipient","type":"address","internalType":"address"}],"stateMutability":"nonpayable"},{"type":"function","name":"ACCUMULATED_FEES","inputs":[],"outputs":[{"name":"","type":"uint256","internalType":"uint256"}],"stateMutability":"view"},{"type":"function","name":"BASE_CHAIN_ASSET_DENOMINATION","inputs":[],"outputs":[{"name":"","type":"string","internalType":"string"}],"stateMutability":"view"},{"type":"function","name":"BASE_CHAIN_ASSET_PRECISION","inputs":[],"outputs":[{"name":"","type":"uint32","internalType":"uint32"}],"stateMutability":"view"},{"type":"function","name":"BASE_CHAIN_BRIDGE_ADDRESS","inputs":[],"outputs":[{"name":"","type":"string","internalType":"string"}],"stateMutability":"view"},{"type":"function","name":"BRIDGE","inputs":[],"outputs":[{"name":"","type":"address","internalType":"address"}],"stateMutability":"view"},{"type":"function","name":"FEE_RECIPIENT","inputs":[],"outputs":[{"name":"","type":"address","internalType":"address"}],"stateMutability":"view"},{"type":"function","name":"IBC_WITHDRAWAL_FEE","inputs":[],"outputs":[{"name":"","type":"uint256","internalType":"uint256"}],"stateMutability":"view"},{"type":"function","name":"SEQUENCER_WITHDRAWAL_FEE","inputs":[],"outputs":[{"name":"","type":"uint256","internalType":"uint256"}],"stateMutability":"view"},{"type":"function","name":"allowance","inputs":[{"name":"owner","type":"address","internalType":"address"},{"name":"spender","type":"address","internalType":"address"}],"outputs":[{"name":"","type":"uint256","internalType":"uint256"}],"stateMutability":"view"},{"type":"function","name":"approve","inputs":[{"name":"spender","type":"address","internalType":"address"},{"name":"value","type":"uint256","internalType":"uint256"}],"outputs":[{"name":"","type":"bool","internalType":"bool"}],"stateMutability":"nonpayable"},{"type":"function","name":"balanceOf","inputs":[{"name":"account","type":"address","internalType":"address"}],"outputs":[{"name":"","type":"uint256","internalType":"uint256"}],"stateMutability":"view"},{"type":"function","name":"claimFees","inputs":[],"outputs":[],"stateMutability":"nonpayable"},{"type":"function","name":"decimals","inputs":[],"outputs":[{"name":"","type":"uint8","internalType":"uint8"}],"stateMutability":"pure"},{"type":"function","name":"mint","inputs":[{"name":"_to","type":"address","internalType":"address"},{"name":"_amount","type":"uint256","internalType":"uint256"}],"outputs":[],"stateMutability":"nonpayable"},{"type":"function","name":"name","inputs":[],"outputs":[{"name":"","type":"string","internalType":"string"}],"stateMutability":"view"},{"type":"function","name":"owner","inputs":[],"outputs":[{"name":"","type":"address","internalType":"address"}],"stateMutability":"view"},{"type":"function","name":"renounceOwnership","inputs":[],"outputs":[],"stateMutability":"nonpayable"},{"type":"function","name":"setFeeRecipient","inputs":[{"name":"_newFeeRecipient","type":"address","internalType":"address"}],"outputs":[],"stateMutability":"nonpayable"},{"type":"function","name":"setIbcWithdrawalFee","inputs":[{"name":"_newFee","type":"uint256","internalType":"uint256"}],"outputs":[],"stateMutability":"nonpayable"},{"type":"function","name":"setSequencerWithdrawalFee","inputs":[{"name":"_newFee","type":"uint256","internalType":"uint256"}],"outputs":[],"stateMutability":"nonpayable"},{"type":"function","name":"symbol","inputs":[],"outputs":[{"name":"","type":"string","internalType":"string"}],"stateMutability":"view"},{"type":"function","name":"totalSupply","inputs":[],"outputs":[{"name":"","type":"uint256","internalType":"uint256"}],"stateMutability":"view"},{"type":"function","name":"transfer","inputs":[{"name":"to","type":"address","internalType":"address"},{"name":"value","type":"uint256","internalType":"uint256"}],"outputs":[{"name":"","type":"bool","internalType":"bool"}],"stateMutability":"nonpayable"},{"type":"function","name":"transferFrom","inputs":[{"name":"from","type":"address","internalType":"address"},{"name":"to","type":"address","internalType":"address"},{"name":"value","type":"uint256","internalType":"uint256"}],"outputs":[{"name":"","type":"bool","internalType":"bool"}],"stateMutability":"nonpayable"},{"type":"function","name":"transferOwnership","inputs":[{"name":"newOwner","type":"address","internalType":"address"}],"outputs":[],"stateMutability":"nonpayable"},{"type":"function","name":"withdrawToIbcChain","inputs":[{"name":"_amount","type":"uint256","internalType":"uint256"},{"name":"_destinationChainAddress","type":"string","internalType":"string"},{"name":"_memo","type":"string","internalType":"string"}],"outputs":[],"stateMutability":"payable"},{"type":"function","name":"withdrawToSequencer","inputs":[{"name":"_amount","type":"uint256","internalType":"uint256"},{"name":"_destinationChainAddress","type":"string","internalType":"string"}],"outputs":[],"stateMutability":"payable"},{"type":"event","name":"Approval","inputs":[{"name":"owner","type":"address","indexed":true,"internalType":"address"},{"name":"spender","type":"address","indexed":true,"internalType":"address"},{"name":"value","type":"uint256","indexed":false,"internalType":"uint256"}],"anonymous":false},{"type":"event","name":"Ics20Withdrawal","inputs":[{"name":"sender","type":"address","indexed":true,"internalType":"address"},{"name":"amount","type":"uint256","indexed":true,"internalType":"uint256"},{"name":"destinationChainAddress","type":"string","indexed":false,"internalType":"string"},{"name":"memo","type":"string","indexed":false,"internalType":"string"}],"anonymous":false},{"type":"event","name":"Mint","inputs":[{"name":"account","type":"address","indexed":true,"internalType":"address"},{"name":"amount","type":"uint256","indexed":false,"internalType":"uint256"}],"anonymous":false},{"type":"event","name":"OwnershipTransferred","inputs":[{"name":"previousOwner","type":"address","indexed":true,"internalType":"address"},{"name":"newOwner","type":"address","indexed":true,"internalType":"address"}],"anonymous":false},{"type":"event","name":"SequencerWithdrawal","inputs":[{"name":"sender","type":"address","indexed":true,"internalType":"address"},{"name":"amount","type":"uint256","indexed":true,"internalType":"uint256"},{"name":"destinationChainAddress","type":"string","indexed":false,"internalType":"string"}],"anonymous":false},{"type":"event","name":"Transfer","inputs":[{"name":"from","type":"address","indexed":true,"internalType":"address"},{"name":"to","type":"address","indexed":true,"internalType":"address"},{"name":"value","type":"uint256","indexed":false,"internalType":"uint256"}],"anonymous":false},{"type":"error","name":"ERC20InsufficientAllowance","inputs":[{"name":"spender","type":"address","internalType":"address"},{"name":"allowance","type":"uint256","internalType":"uint256"},{"name":"needed","type":"uint256","internalType":"uint256"}]},{"type":"error","name":"ERC20InsufficientBalance","inputs":[{"name":"sender","type":"address","internalType":"address"},{"name":"balance","type":"uint256","internalType":"uint256"},{"name":"needed","type":"uint256","internalType":"uint256"}]},{"type":"error","name":"ERC20InvalidApprover","inputs":[{"name":"approver","type":"address","internalType":"address"}]},{"type":"error","name":"ERC20InvalidReceiver","inputs":[{"name":"receiver","type":"address","internalType":"address"}]},{"type":"error","name":"ERC20InvalidSender","inputs":[{"name":"sender","type":"address","internalType":"address"}]},{"type":"error","name":"ERC20InvalidSpender","inputs":[{"name":"spender","type":"address","internalType":"address"}]},{"type":"error","name":"OwnableInvalidOwner","inputs":[{"name":"owner","type":"address","internalType":"address"}]},{"type":"error","name":"OwnableUnauthorizedAccount","inputs":[{"name":"account","type":"address","internalType":"address"}]}],"bytecode":{"object":"0x60e060405234801561001057600080fd5b506040516119c23803806119c283398101604081905261002f916102f4565b6040805180820182526004808252635553444360e01b602080840182905284518086019095529184529083015290338061008457604051631e4fbdf760e01b8152600060048201526024015b60405180910390fd5b61008d816101ca565b50600a61009a8382610433565b50600b6100a78282610433565b506100b3915050600690565b60ff168663ffffffff1611156101575760405162461bcd60e51b815260206004820152605d60248201527f41737472696142726964676561626c65555344433a206261736520636861696e60448201527f20617373657420707265636973696f6e206d757374206265206c65737320746860648201527f616e206f7220657175616c20746f20746f6b656e20646563696d616c73000000608482015260a40161007b565b63ffffffff8616608052600161016d8682610433565b50600261017a8582610433565b50610186866006610508565b61019190600a610612565b60c0526001600160a01b0396871660a052600392909255600455600580546001600160a01b03191691909516179093555061062b915050565b600080546001600160a01b038381166001600160a01b0319831681178455604051919092169283917f8be0079c531659141344cd1fd0a4f28419497f9722a3daafe3b4186f6b6457e09190a35050565b80516001600160a01b038116811461023157600080fd5b919050565b634e487b7160e01b600052604160045260246000fd5b600082601f83011261025d57600080fd5b81516001600160401b038082111561027757610277610236565b604051601f8301601f19908116603f0116810190828211818310171561029f5761029f610236565b81604052838152602092508660208588010111156102bc57600080fd5b600091505b838210156102de57858201830151818301840152908201906102c1565b6000602085830101528094505050505092915050565b600080600080600080600060e0888a03121561030f57600080fd5b6103188861021a565b9650602088015163ffffffff8116811461033157600080fd5b60408901519096506001600160401b038082111561034e57600080fd5b61035a8b838c0161024c565b965060608a015191508082111561037057600080fd5b5061037d8a828b0161024c565b9450506080880151925060a0880151915061039a60c0890161021a565b905092959891949750929550565b600181811c908216806103bc57607f821691505b6020821081036103dc57634e487b7160e01b600052602260045260246000fd5b50919050565b601f82111561042e576000816000526020600020601f850160051c8101602086101561040b5750805b601f850160051c820191505b8181101561042a57828155600101610417565b5050505b505050565b81516001600160401b0381111561044c5761044c610236565b6104608161045a84546103a8565b846103e2565b602080601f831160018114610495576000841561047d5750858301515b600019600386901b1c1916600185901b17855561042a565b600085815260208120601f198616915b828110156104c4578886015182559484019460019091019084016104a5565b50858210156104e25787850151600019600388901b60f8161c191681555b5050505050600190811b01905550565b634e487b7160e01b600052601160045260246000fd5b63ffffffff828116828216039080821115610525576105256104f2565b5092915050565b600181815b8085111561056757816000190482111561054d5761054d6104f2565b8085161561055a57918102915b93841c9390800290610531565b509250929050565b60008261057e5750600161060c565b8161058b5750600061060c565b81600181146105a157600281146105ab576105c7565b600191505061060c565b60ff8411156105bc576105bc6104f2565b50506001821b61060c565b5060208310610133831016604e8410600b84101617156105ea575081810a61060c565b6105f4838361052c565b8060001904821115610608576106086104f2565b0290505b92915050565b600061062463ffffffff84168361056f565b9392505050565b60805160a05160c05161135a6106686000396000818161071001526109f40152600081816104dd0152610610015260006102ff015261135a6000f3fe60806040526004361061019c5760003560e01c806395d89b41116100ec578063db97dc981161008a578063ebd0905411610064578063ebd09054146104ab578063ee9a31a2146104cb578063f2fde38b146104ff578063fc88d31b1461051f57600080fd5b8063db97dc9814610430578063dd62ed3e14610445578063e74b981b1461048b57600080fd5b8063ad228247116100c6578063ad228247146103dd578063b6476c7e146103f3578063d294f09314610408578063d38fe9a71461041d57600080fd5b806395d89b4114610388578063a7eaa7391461039d578063a9059cbb146103bd57600080fd5b80635fe56b0911610159578063715018a611610133578063715018a6146102d85780637eb6dec7146102ed57806388973979146103365780638da5cb5b1461035657600080fd5b80635fe56b09146102795780636f46384a1461028c57806370a08231146102a257600080fd5b806306fdde03146101a1578063095ea7b3146101cc57806318160ddd146101fc57806323b872dd1461021b578063313ce5671461023b57806340c10f1914610257575b600080fd5b3480156101ad57600080fd5b506101b6610535565b6040516101c39190610ef3565b60405180910390f35b3480156101d857600080fd5b506101ec6101e7366004610f5e565b6105c7565b60405190151581526020016101c3565b34801561020857600080fd5b506009545b6040519081526020016101c3565b34801561022757600080fd5b506101ec610236366004610f88565b6105e1565b34801561024757600080fd5b50604051600681526020016101c3565b34801561026357600080fd5b50610277610272366004610f5e565b610605565b005b61027761028736600461100d565b6106e6565b34801561029857600080fd5b5061020d60035481565b3480156102ae57600080fd5b5061020d6102bd366004611087565b6001600160a01b031660009081526007602052604090205490565b3480156102e457600080fd5b506102776107c5565b3480156102f957600080fd5b506103217f000000000000000000000000000000000000000000000000000000000000000081565b60405163ffffffff90911681526020016101c3565b34801561034257600080fd5b506102776103513660046110a9565b6107d9565b34801561036257600080fd5b506000546001600160a01b03165b6040516001600160a01b0390911681526020016101c3565b34801561039457600080fd5b506101b66107e6565b3480156103a957600080fd5b506102776103b83660046110a9565b6107f5565b3480156103c957600080fd5b506101ec6103d8366004610f5e565b610802565b3480156103e957600080fd5b5061020d60065481565b3480156103ff57600080fd5b506101b6610810565b34801561041457600080fd5b5061027761089e565b61027761042b3660046110c2565b6109ca565b34801561043c57600080fd5b506101b6610aa3565b34801561045157600080fd5b5061020d61046036600461110e565b6001600160a01b03918216600090815260086020908152604080832093909416825291909152205490565b34801561049757600080fd5b506102776104a6366004611087565b610ab0565b3480156104b757600080fd5b50600554610370906001600160a01b031681565b3480156104d757600080fd5b506103707f000000000000000000000000000000000000000000000000000000000000000081565b34801561050b57600080fd5b5061027761051a366004611087565b610ada565b34801561052b57600080fd5b5061020d60045481565b6060600a805461054490611141565b80601f016020809104026020016040519081016040528092919081815260200182805461057090611141565b80156105bd5780601f10610592576101008083540402835291602001916105bd565b820191906000526020600020905b8154815290600101906020018083116105a057829003601f168201915b5050505050905090565b6000336105d5818585610b18565b60019150505b92915050565b6000336105ef858285610b2a565b6105fa858585610ba8565b506001949350505050565b336001600160a01b037f000000000000000000000000000000000000000000000000000000000000000016146106955760405162461bcd60e51b815260206004820152602a60248201527f41737472696142726964676561626c65555344433a206f6e6c79206272696467604482015269194818d85b881b5a5b9d60b21b60648201526084015b60405180910390fd5b61069f8282610c07565b816001600160a01b03167f0f6798a560793a54c3bcfe86a93cde1e73087d944c0ea20544137d4121396885826040516106da91815260200190565b60405180910390a25050565b846004548034146107095760405162461bcd60e51b815260040161068c9061117b565b60006107357f0000000000000000000000000000000000000000000000000000000000000000846111cc565b116107525760405162461bcd60e51b815260040161068c906111ee565b3460066000828254610764919061128c565b9091555061077490503388610c41565b86336001600160a01b03167f0c64e29a5254a71c7f4e52b3d2d236348c80e00a00ba2e1961962bd2827c03fb888888886040516107b494939291906112d6565b60405180910390a350505050505050565b6107cd610c77565b6107d76000610ca4565b565b6107e1610c77565b600455565b6060600b805461054490611141565b6107fd610c77565b600355565b6000336105d5818585610ba8565b6002805461081d90611141565b80601f016020809104026020016040519081016040528092919081815260200182805461084990611141565b80156108965780601f1061086b57610100808354040283529160200191610896565b820191906000526020600020905b81548152906001019060200180831161087957829003601f168201915b505050505081565b6005546001600160a01b0316331461090a5760405162461bcd60e51b815260206004820152602960248201527f41737472696142726964676561626c6545524332303a206f6e6c7920666565206044820152681c9958da5c1a595b9d60ba1b606482015260840161068c565b6005546006546040516000926001600160a01b031691908381818185875af1925050503d8060008114610959576040519150601f19603f3d011682016040523d82523d6000602084013e61095e565b606091505b50509050806109c25760405162461bcd60e51b815260206004820152602a60248201527f41737472696142726964676561626c6545524332303a20666565207472616e7360448201526919995c8819985a5b195960b21b606482015260840161068c565b506000600655565b826003548034146109ed5760405162461bcd60e51b815260040161068c9061117b565b6000610a197f0000000000000000000000000000000000000000000000000000000000000000846111cc565b11610a365760405162461bcd60e51b815260040161068c906111ee565b3460066000828254610a48919061128c565b90915550610a5890503386610c41565b84336001600160a01b03167f0f4961cab7530804898499aa89f5ec81d1a73102e2e4a1f30f88e5ae3513ba2a8686604051610a94929190611308565b60405180910390a35050505050565b6001805461081d90611141565b610ab8610c77565b600580546001600160a01b0319166001600160a01b0392909216919091179055565b610ae2610c77565b6001600160a01b038116610b0c57604051631e4fbdf760e01b81526000600482015260240161068c565b610b1581610ca4565b50565b610b258383836001610cf4565b505050565b6001600160a01b038381166000908152600860209081526040808320938616835292905220546000198114610ba25781811015610b9357604051637dc7a0d960e11b81526001600160a01b0384166004820152602481018290526044810183905260640161068c565b610ba284848484036000610cf4565b50505050565b6001600160a01b038316610bd257604051634b637e8f60e11b81526000600482015260240161068c565b6001600160a01b038216610bfc5760405163ec442f0560e01b81526000600482015260240161068c565b610b25838383610dc9565b6001600160a01b038216610c315760405163ec442f0560e01b81526000600482015260240161068c565b610c3d60008383610dc9565b5050565b6001600160a01b038216610c6b57604051634b637e8f60e11b81526000600482015260240161068c565b610c3d82600083610dc9565b6000546001600160a01b031633146107d75760405163118cdaa760e01b815233600482015260240161068c565b600080546001600160a01b038381166001600160a01b0319831681178455604051919092169283917f8be0079c531659141344cd1fd0a4f28419497f9722a3daafe3b4186f6b6457e09190a35050565b6001600160a01b038416610d1e5760405163e602df0560e01b81526000600482015260240161068c565b6001600160a01b038316610d4857604051634a1406b160e11b81526000600482015260240161068c565b6001600160a01b0380851660009081526008602090815260408083209387168352929052208290558015610ba257826001600160a01b0316846001600160a01b03167f8c5be1e5ebec7d5bd14f71427d1e84f3dd0314c0f7b2291e5b200ac8c7c3b92584604051610dbb91815260200190565b60405180910390a350505050565b6001600160a01b038316610df4578060096000828254610de9919061128c565b90915550610e669050565b6001600160a01b03831660009081526007602052604090205481811015610e475760405163391434e360e21b81526001600160a01b0385166004820152602481018290526044810183905260640161068c565b6001600160a01b03841660009081526007602052604090209082900390555b6001600160a01b038216610e8257600980548290039055610ea1565b6001600160a01b03821660009081526007602052604090208054820190555b816001600160a01b0316836001600160a01b03167fddf252ad1be2c89b69c2b068fc378daa952ba7f163c4a11628f55a4df523b3ef83604051610ee691815260200190565b60405180910390a3505050565b60006020808352835180602085015260005b81811015610f2157858101830151858201604001528201610f05565b506000604082860101526040601f19601f8301168501019250505092915050565b80356001600160a01b0381168114610f5957600080fd5b919050565b60008060408385031215610f7157600080fd5b610f7a83610f42565b946020939093013593505050565b600080600060608486031215610f9d57600080fd5b610fa684610f42565b9250610fb460208501610f42565b9150604084013590509250925092565b60008083601f840112610fd657600080fd5b50813567ffffffffffffffff811115610fee57600080fd5b60208301915083602082850101111561100657600080fd5b9250929050565b60008060008060006060868803121561102557600080fd5b85359450602086013567ffffffffffffffff8082111561104457600080fd5b61105089838a01610fc4565b9096509450604088013591508082111561106957600080fd5b5061107688828901610fc4565b969995985093965092949392505050565b60006020828403121561109957600080fd5b6110a282610f42565b9392505050565b6000602082840312156110bb57600080fd5b5035919050565b6000806000604084860312156110d757600080fd5b83359250602084013567ffffffffffffffff8111156110f557600080fd5b61110186828701610fc4565b9497909650939450505050565b6000806040838503121561112157600080fd5b61112a83610f42565b915061113860208401610f42565b90509250929050565b600181811c9082168061115557607f821691505b60208210810361117557634e487b7160e01b600052602260045260246000fd5b50919050565b60208082526031908201527f41737472696142726964676561626c65555344433a20696e73756666696369656040820152706e74207769746864726177616c2066656560781b606082015260800190565b6000826111e957634e487b7160e01b600052601260045260246000fd5b500490565b60208082526072908201527f41737472696142726964676561626c65555344433a20696e737566666963696560408201527f6e742076616c75652c206d7573742062652067726561746572207468616e203160608201527f30202a2a2028544f4b454e5f444543494d414c53202d20424153455f434841496080820152714e5f41535345545f505245434953494f4e2960701b60a082015260c00190565b808201808211156105db57634e487b7160e01b600052601160045260246000fd5b81835281816020850137506000828201602090810191909152601f909101601f19169091010190565b6040815260006112ea6040830186886112ad565b82810360208401526112fd8185876112ad565b979650505050505050565b60208152600061131c6020830184866112ad565b94935050505056fea264697066735822122026e50f8b7edbb68cf2eedd42dd1bd906519be013b9e493c4dd0335797c37b11864736f6c63430008190033","linkReferences":{}},"methodIdentifiers":{"ACCUMULATED_FEES()":"ad228247","BASE_CHAIN_ASSET_DENOMINATION()":"b6476c7e","BASE_CHAIN_ASSET_PRECISION()":"7eb6dec7","BASE_CHAIN_BRIDGE_ADDRESS()":"db97dc98","BRIDGE()":"ee9a31a2","FEE_RECIPIENT()":"ebd09054","IBC_WITHDRAWAL_FEE()":"fc88d31b","SEQUENCER_WITHDRAWAL_FEE()":"6f46384a","allowance(address,address)":"dd62ed3e","approve(address,uint256)":"095ea7b3","balanceOf(address)":"70a08231","claimFees()":"d294f093","decimals()":"313ce567","mint(address,uint256)":"40c10f19","name()":"06fdde03","owner()":"8da5cb5b","renounceOwnership()":"715018a6","setFeeRecipient(address)":"e74b981b","setIbcWithdrawalFee(uint256)":"88973979","setSequencerWithdrawalFee(uint256)":"a7eaa739","symbol()":"95d89b41","totalSupply()":"18160ddd","transfer(address,uint256)":"a9059cbb","transferFrom(address,address,uint256)":"23b872dd","transferOwnership(address)":"f2fde38b","withdrawToIbcChain(uint256,string,string)":"5fe56b09","withdrawToSequencer(uint256,string)":"d38fe9a7"},"storageLayout":{"storage":[{"astId":43212,"contract":"src/AstriaBridgeableUSDC.sol:AstriaBridgeableUSDC","label":"_owner","offset":0,"slot":"0","type":"t_address"},{"astId":45649,"contract":"src/AstriaBridgeableUSDC.sol:AstriaBridgeableUSDC","label":"BASE_CHAIN_BRIDGE_ADDRESS","offset":0,"slot":"1","type":"t_string_storage"},{"astId":45651,"contract":"src/AstriaBridgeableUSDC.sol:AstriaBridgeableUSDC","label":"BASE_CHAIN_ASSET_DENOMINATION","offset":0,"slot":"2","type":"t_string_storage"},{"astId":45653,"contract":"src/AstriaBridgeableUSDC.sol:AstriaBridgeableUSDC","label":"SEQUENCER_WITHDRAWAL_FEE","offset":0,"slot":"3","type":"t_uint256"},{"astId":45655,"contract":"src/AstriaBridgeableUSDC.sol:AstriaBridgeableUSDC","label":"IBC_WITHDRAWAL_FEE","offset":0,"slot":"4","type":"t_uint256"},{"astId":45657,"contract":"src/AstriaBridgeableUSDC.sol:AstriaBridgeableUSDC","label":"FEE_RECIPIENT","offset":0,"slot":"5","type":"t_address"},{"astId":45659,"contract":"src/AstriaBridgeableUSDC.sol:AstriaBridgeableUSDC","label":"ACCUMULATED_FEES","offset":0,"slot":"6","type":"t_uint256"},{"astId":43511,"contract":"src/AstriaBridgeableUSDC.sol:AstriaBridgeableUSDC","label":"_balances","offset":0,"slot":"7","type":"t_mapping(t_address,t_uint256)"},{"astId":43517,"contract":"src/AstriaBridgeableUSDC.sol:AstriaBridgeableUSDC","label":"_allowances","offset":0,"slot":"8","type":"t_mapping(t_address,t_mapping(t_address,t_uint256))"},{"astId":43519,"contract":"src/AstriaBridgeableUSDC.sol:AstriaBridgeableUSDC","label":"_totalSupply","offset":0,"slot":"9","type":"t_uint256"},{"astId":43521,"contract":"src/AstriaBridgeableUSDC.sol:AstriaBridgeableUSDC","label":"_name","offset":0,"slot":"10","type":"t_string_storage"},{"astId":43523,"contract":"src/AstriaBridgeableUSDC.sol:AstriaBridgeableUSDC","label":"_symbol","offset":0,"slot":"11","type":"t_string_storage"}],"types":{"t_address":{"encoding":"inplace","label":"address","numberOfBytes":"20"},"t_mapping(t_address,t_mapping(t_address,t_uint256))":{"encoding":"mapping","key":"t_address","label":"mapping(address => mapping(address => uint256))","numberOfBytes":"32","value":"t_mapping(t_address,t_uint256)"},"t_mapping(t_address,t_uint256)":{"encoding":"mapping","key":"t_address","label":"mapping(address => uint256)","numberOfBytes":"32","value":"t_uint256"},"t_string_storage":{"encoding":"bytes","label":"string","numberOfBytes":"32"},"t_uint256":{"encoding":"inplace","label":"uint256","numberOfBytes":"32"}}},"id":30}