{"abi":[{"type":"constructor","inputs":[{"name":"_bridge","type":"address","internalType":"address"},{"name":"_baseChainAssetPrecision","type":"uint32","internalType":"uint32"},{"name":"_baseChainBridgeAddress","type":"string","internalType":"string"},{"name":"_baseChainAssetDenomination","type":"string","internalType":"string"}],"stateMutability":"nonpayable"},{"type":"function","name":"BASE_CHAIN_ASSET_DENOMINATION","inputs":[],"outputs":[{"name":"","type":"string","internalType":"string"}],"stateMutability":"view"},{"type":"function","name":"BASE_CHAIN_ASSET_PRECISION","inputs":[],"outputs":[{"name":"","type":"uint32","internalType":"uint32"}],"stateMutability":"view"},{"type":"function","name":"BASE_CHAIN_BRIDGE_ADDRESS","inputs":[],"outputs":[{"name":"","type":"string","internalType":"string"}],"stateMutability":"view"},{"type":"function","name":"BRIDGE","inputs":[],"outputs":[{"name":"","type":"address","internalType":"address"}],"stateMutability":"view"},{"type":"function","name":"allowance","inputs":[{"name":"owner","type":"address","internalType":"address"},{"name":"spender","type":"address","internalType":"address"}],"outputs":[{"name":"","type":"uint256","internalType":"uint256"}],"stateMutability":"view"},{"type":"function","name":"approve","inputs":[{"name":"spender","type":"address","internalType":"address"},{"name":"value","type":"uint256","internalType":"uint256"}],"outputs":[{"name":"","type":"bool","internalType":"bool"}],"stateMutability":"nonpayable"},{"type":"function","name":"balanceOf","inputs":[{"name":"account","type":"address","internalType":"address"}],"outputs":[{"name":"","type":"uint256","internalType":"uint256"}],"stateMutability":"view"},{"type":"function","name":"decimals","inputs":[],"outputs":[{"name":"","type":"uint8","internalType":"uint8"}],"stateMutability":"pure"},{"type":"function","name":"mint","inputs":[{"name":"_to","type":"address","internalType":"address"},{"name":"_amount","type":"uint256","internalType":"uint256"}],"outputs":[],"stateMutability":"nonpayable"},{"type":"function","name":"name","inputs":[],"outputs":[{"name":"","type":"string","internalType":"string"}],"stateMutability":"view"},{"type":"function","name":"symbol","inputs":[],"outputs":[{"name":"","type":"string","internalType":"string"}],"stateMutability":"view"},{"type":"function","name":"totalSupply","inputs":[],"outputs":[{"name":"","type":"uint256","internalType":"uint256"}],"stateMutability":"view"},{"type":"function","name":"transfer","inputs":[{"name":"to","type":"address","internalType":"address"},{"name":"value","type":"uint256","internalType":"uint256"}],"outputs":[{"name":"","type":"bool","internalType":"bool"}],"stateMutability":"nonpayable"},{"type":"function","name":"transferFrom","inputs":[{"name":"from","type":"address","internalType":"address"},{"name":"to","type":"address","internalType":"address"},{"name":"value","type":"uint256","internalType":"uint256"}],"outputs":[{"name":"","type":"bool","internalType":"bool"}],"stateMutability":"nonpayable"},{"type":"function","name":"withdrawToIbcChain","inputs":[{"name":"_amount","type":"uint256","internalType":"uint256"},{"name":"_destinationChainAddress","type":"string","internalType":"string"},{"name":"_memo","type":"string","internalType":"string"}],"outputs":[],"stateMutability":"nonpayable"},{"type":"function","name":"withdrawToSequencer","inputs":[{"name":"_amount","type":"uint256","internalType":"uint256"},{"name":"_destinationChainAddress","type":"string","internalType":"string"}],"outputs":[],"stateMutability":"nonpayable"},{"type":"event","name":"Approval","inputs":[{"name":"owner","type":"address","indexed":true,"internalType":"address"},{"name":"spender","type":"address","indexed":true,"internalType":"address"},{"name":"value","type":"uint256","indexed":false,"internalType":"uint256"}],"anonymous":false},{"type":"event","name":"Ics20Withdrawal","inputs":[{"name":"sender","type":"address","indexed":true,"internalType":"address"},{"name":"amount","type":"uint256","indexed":true,"internalType":"uint256"},{"name":"destinationChainAddress","type":"string","indexed":false,"internalType":"string"},{"name":"memo","type":"string","indexed":false,"internalType":"string"}],"anonymous":false},{"type":"event","name":"Mint","inputs":[{"name":"account","type":"address","indexed":true,"internalType":"address"},{"name":"amount","type":"uint256","indexed":false,"internalType":"uint256"}],"anonymous":false},{"type":"event","name":"SequencerWithdrawal","inputs":[{"name":"sender","type":"address","indexed":true,"internalType":"address"},{"name":"amount","type":"uint256","indexed":true,"internalType":"uint256"},{"name":"destinationChainAddress","type":"string","indexed":false,"internalType":"string"}],"anonymous":false},{"type":"event","name":"Transfer","inputs":[{"name":"from","type":"address","indexed":true,"internalType":"address"},{"name":"to","type":"address","indexed":true,"internalType":"address"},{"name":"value","type":"uint256","indexed":false,"internalType":"uint256"}],"anonymous":false},{"type":"error","name":"ERC20InsufficientAllowance","inputs":[{"name":"spender","type":"address","internalType":"address"},{"name":"allowance","type":"uint256","internalType":"uint256"},{"name":"needed","type":"uint256","internalType":"uint256"}]},{"type":"error","name":"ERC20InsufficientBalance","inputs":[{"name":"sender","type":"address","internalType":"address"},{"name":"balance","type":"uint256","internalType":"uint256"},{"name":"needed","type":"uint256","internalType":"uint256"}]},{"type":"error","name":"ERC20InvalidApprover","inputs":[{"name":"approver","type":"address","internalType":"address"}]},{"type":"error","name":"ERC20InvalidReceiver","inputs":[{"name":"receiver","type":"address","internalType":"address"}]},{"type":"error","name":"ERC20InvalidSender","inputs":[{"name":"sender","type":"address","internalType":"address"}]},{"type":"error","name":"ERC20InvalidSpender","inputs":[{"name":"spender","type":"address","internalType":"address"}]}],"bytecode":{"object":"0x60e06040523480156200001157600080fd5b50604051620013a0380380620013a0833981016040819052620000349162000254565b6040805180820182526004808252635553444360e01b60208084018290528451808601909552918452908301529060056200007083826200038b565b5060066200007f82826200038b565b506200008c915050600690565b60ff168363ffffffff161115620001355760405162461bcd60e51b815260206004820152605d60248201527f41737472696142726964676561626c65555344433a206261736520636861696e60448201527f20617373657420707265636973696f6e206d757374206265206c65737320746860648201527f616e206f7220657175616c20746f20746f6b656e20646563696d616c73000000608482015260a40160405180910390fd5b63ffffffff831660805260006200014d83826200038b565b5060016200015c82826200038b565b506200016a8360066200046d565b6200017790600a62000593565b60c0525050506001600160a01b031660a052620005ae565b634e487b7160e01b600052604160045260246000fd5b600082601f830112620001b757600080fd5b81516001600160401b0380821115620001d457620001d46200018f565b604051601f8301601f19908116603f01168101908282118183101715620001ff57620001ff6200018f565b816040528381526020925086838588010111156200021c57600080fd5b600091505b8382101562000240578582018301518183018401529082019062000221565b600093810190920192909252949350505050565b600080600080608085870312156200026b57600080fd5b84516001600160a01b03811681146200028357600080fd5b602086015190945063ffffffff811681146200029e57600080fd5b60408601519093506001600160401b0380821115620002bc57600080fd5b620002ca88838901620001a5565b93506060870151915080821115620002e157600080fd5b50620002f087828801620001a5565b91505092959194509250565b600181811c908216806200031157607f821691505b6020821081036200033257634e487b7160e01b600052602260045260246000fd5b50919050565b601f8211156200038657600081815260208120601f850160051c81016020861015620003615750805b601f850160051c820191505b8181101562000382578281556001016200036d565b5050505b505050565b81516001600160401b03811115620003a757620003a76200018f565b620003bf81620003b88454620002fc565b8462000338565b602080601f831160018114620003f75760008415620003de5750858301515b600019600386901b1c1916600185901b17855562000382565b600085815260208120601f198616915b82811015620004285788860151825594840194600190910190840162000407565b5085821015620004475787850151600019600388901b60f8161c191681555b5050505050600190811b01905550565b634e487b7160e01b600052601160045260246000fd5b63ffffffff8281168282160390808211156200048d576200048d62000457565b5092915050565b600181815b80851115620004d5578160001904821115620004b957620004b962000457565b80851615620004c757918102915b93841c939080029062000499565b509250929050565b600082620004ee575060016200058d565b81620004fd575060006200058d565b8160018114620005165760028114620005215762000541565b60019150506200058d565b60ff84111562000535576200053562000457565b50506001821b6200058d565b5060208310610133831016604e8410600b841016171562000566575081810a6200058d565b62000572838362000494565b806000190482111562000589576200058962000457565b0290505b92915050565b6000620005a763ffffffff841683620004dd565b9392505050565b60805160a05160c051610db4620005ec6000396000818161047601526105c50152600081816102830152610398015260006101d00152610db46000f3fe608060405234801561001057600080fd5b50600436106101005760003560e01c80637eb6dec711610097578063d38fe9a711610066578063d38fe9a71461022a578063db97dc981461023d578063dd62ed3e14610245578063ee9a31a21461027e57600080fd5b80637eb6dec7146101cb57806395d89b4114610207578063a9059cbb1461020f578063b6476c7e1461022257600080fd5b8063313ce567116100d3578063313ce5671461016b57806340c10f191461017a5780635fe56b091461018f57806370a08231146101a257600080fd5b806306fdde0314610105578063095ea7b31461012357806318160ddd1461014657806323b872dd14610158575b600080fd5b61010d6102bd565b60405161011a91906109b8565b60405180910390f35b610136610131366004610a22565b61034f565b604051901515815260200161011a565b6004545b60405190815260200161011a565b610136610166366004610a4c565b610369565b6040516006815260200161011a565b61018d610188366004610a22565b61038d565b005b61018d61019d366004610ad1565b61046e565b61014a6101b0366004610b4b565b6001600160a01b031660009081526002602052604090205490565b6101f27f000000000000000000000000000000000000000000000000000000000000000081565b60405163ffffffff909116815260200161011a565b61010d610512565b61013661021d366004610a22565b610521565b61010d61052f565b61018d610238366004610b6d565b6105bd565b61010d61065b565b61014a610253366004610bb9565b6001600160a01b03918216600090815260036020908152604080832093909416825291909152205490565b6102a57f000000000000000000000000000000000000000000000000000000000000000081565b6040516001600160a01b03909116815260200161011a565b6060600580546102cc90610bec565b80601f01602080910402602001604051908101604052809291908181526020018280546102f890610bec565b80156103455780601f1061031a57610100808354040283529160200191610345565b820191906000526020600020905b81548152906001019060200180831161032857829003601f168201915b5050505050905090565b60003361035d818585610668565b60019150505b92915050565b60003361037785828561067a565b6103828585856106f8565b506001949350505050565b336001600160a01b037f0000000000000000000000000000000000000000000000000000000000000000161461041d5760405162461bcd60e51b815260206004820152602a60248201527f41737472696142726964676561626c65555344433a206f6e6c79206272696467604482015269194818d85b881b5a5b9d60b21b60648201526084015b60405180910390fd5b6104278282610757565b816001600160a01b03167f0f6798a560793a54c3bcfe86a93cde1e73087d944c0ea20544137d41213968858260405161046291815260200190565b60405180910390a25050565b84600061049b7f000000000000000000000000000000000000000000000000000000000000000083610c26565b116104b85760405162461bcd60e51b815260040161041490610c48565b6104c23387610791565b85336001600160a01b03167f0c64e29a5254a71c7f4e52b3d2d236348c80e00a00ba2e1961962bd2827c03fb878787876040516105029493929190610d0f565b60405180910390a3505050505050565b6060600680546102cc90610bec565b60003361035d8185856106f8565b6001805461053c90610bec565b80601f016020809104026020016040519081016040528092919081815260200182805461056890610bec565b80156105b55780601f1061058a576101008083540402835291602001916105b5565b820191906000526020600020905b81548152906001019060200180831161059857829003601f168201915b505050505081565b8260006105ea7f000000000000000000000000000000000000000000000000000000000000000083610c26565b116106075760405162461bcd60e51b815260040161041490610c48565b6106113385610791565b83336001600160a01b03167f0f4961cab7530804898499aa89f5ec81d1a73102e2e4a1f30f88e5ae3513ba2a858560405161064d929190610d41565b60405180910390a350505050565b6000805461053c90610bec565b61067583838360016107c7565b505050565b6001600160a01b0383811660009081526003602090815260408083209386168352929052205460001981146106f257818110156106e357604051637dc7a0d960e11b81526001600160a01b03841660048201526024810182905260448101839052606401610414565b6106f2848484840360006107c7565b50505050565b6001600160a01b03831661072257604051634b637e8f60e11b815260006004820152602401610414565b6001600160a01b03821661074c5760405163ec442f0560e01b815260006004820152602401610414565b61067583838361088e565b6001600160a01b0382166107815760405163ec442f0560e01b815260006004820152602401610414565b61078d6000838361088e565b5050565b6001600160a01b0382166107bb57604051634b637e8f60e11b815260006004820152602401610414565b61078d8260008361088e565b6001600160a01b0384166107f15760405163e602df0560e01b815260006004820152602401610414565b6001600160a01b03831661081b57604051634a1406b160e11b815260006004820152602401610414565b6001600160a01b03808516600090815260036020908152604080832093871683529290522082905580156106f257826001600160a01b0316846001600160a01b03167f8c5be1e5ebec7d5bd14f71427d1e84f3dd0314c0f7b2291e5b200ac8c7c3b9258460405161064d91815260200190565b6001600160a01b0383166108b95780600460008282546108ae9190610d5d565b9091555061092b9050565b6001600160a01b0383166000908152600260205260409020548181101561090c5760405163391434e360e21b81526001600160a01b03851660048201526024810182905260448101839052606401610414565b6001600160a01b03841660009081526002602052604090209082900390555b6001600160a01b03821661094757600480548290039055610966565b6001600160a01b03821660009081526002602052604090208054820190555b816001600160a01b0316836001600160a01b03167fddf252ad1be2c89b69c2b068fc378daa952ba7f163c4a11628f55a4df523b3ef836040516109ab91815260200190565b60405180910390a3505050565b600060208083528351808285015260005b818110156109e5578581018301518582016040015282016109c9565b506000604082860101526040601f19601f8301168501019250505092915050565b80356001600160a01b0381168114610a1d57600080fd5b919050565b60008060408385031215610a3557600080fd5b610a3e83610a06565b946020939093013593505050565b600080600060608486031215610a6157600080fd5b610a6a84610a06565b9250610a7860208501610a06565b9150604084013590509250925092565b60008083601f840112610a9a57600080fd5b50813567ffffffffffffffff811115610ab257600080fd5b602083019150836020828501011115610aca57600080fd5b9250929050565b600080600080600060608688031215610ae957600080fd5b85359450602086013567ffffffffffffffff80821115610b0857600080fd5b610b1489838a01610a88565b90965094506040880135915080821115610b2d57600080fd5b50610b3a88828901610a88565b969995985093965092949392505050565b600060208284031215610b5d57600080fd5b610b6682610a06565b9392505050565b600080600060408486031215610b8257600080fd5b83359250602084013567ffffffffffffffff811115610ba057600080fd5b610bac86828701610a88565b9497909650939450505050565b60008060408385031215610bcc57600080fd5b610bd583610a06565b9150610be360208401610a06565b90509250929050565b600181811c90821680610c0057607f821691505b602082108103610c2057634e487b7160e01b600052602260045260246000fd5b50919050565b600082610c4357634e487b7160e01b600052601260045260246000fd5b500490565b60208082526072908201527f41737472696142726964676561626c65555344433a20696e737566666963696560408201527f6e742076616c75652c206d7573742062652067726561746572207468616e203160608201527f30202a2a2028544f4b454e5f444543494d414c53202d20424153455f434841496080820152714e5f41535345545f505245434953494f4e2960701b60a082015260c00190565b81835281816020850137506000828201602090810191909152601f909101601f19169091010190565b604081526000610d23604083018688610ce6565b8281036020840152610d36818587610ce6565b979650505050505050565b602081526000610d55602083018486610ce6565b949350505050565b8082018082111561036357634e487b7160e01b600052601160045260246000fdfea264697066735822122074f91b68d51cd2c3ad131275e6e7a756a7410c01d925a2f35bf87b931060b30e64736f6c63430008150033","linkReferences":{}},"methodIdentifiers":{"BASE_CHAIN_ASSET_DENOMINATION()":"b6476c7e","BASE_CHAIN_ASSET_PRECISION()":"7eb6dec7","BASE_CHAIN_BRIDGE_ADDRESS()":"db97dc98","BRIDGE()":"ee9a31a2","allowance(address,address)":"dd62ed3e","approve(address,uint256)":"095ea7b3","balanceOf(address)":"70a08231","decimals()":"313ce567","mint(address,uint256)":"40c10f19","name()":"06fdde03","symbol()":"95d89b41","totalSupply()":"18160ddd","transfer(address,uint256)":"a9059cbb","transferFrom(address,address,uint256)":"23b872dd","withdrawToIbcChain(uint256,string,string)":"5fe56b09","withdrawToSequencer(uint256,string)":"d38fe9a7"},"id":5}