{"abi":[{"type":"constructor","inputs":[{"name":"_bridge","type":"address","internalType":"address"},{"name":"_baseChainAssetPrecision","type":"uint32","internalType":"uint32"},{"name":"_baseChainBridgeAddress","type":"string","internalType":"string"},{"name":"_baseChainAssetDenomination","type":"string","internalType":"string"},{"name":"_name","type":"string","internalType":"string"},{"name":"_symbol","type":"string","internalType":"string"},{"name":"_sequencerWithdrawalFee","type":"uint256","internalType":"uint256"},{"name":"_ibcWithdrawalFee","type":"uint256","internalType":"uint256"},{"name":"_feeRecipient","type":"address","internalType":"address"}],"stateMutability":"nonpayable"},{"type":"function","name":"ACCUMULATED_FEES","inputs":[],"outputs":[{"name":"","type":"uint256","internalType":"uint256"}],"stateMutability":"view"},{"type":"function","name":"BASE_CHAIN_ASSET_DENOMINATION","inputs":[],"outputs":[{"name":"","type":"string","internalType":"string"}],"stateMutability":"view"},{"type":"function","name":"BASE_CHAIN_ASSET_PRECISION","inputs":[],"outputs":[{"name":"","type":"uint32","internalType":"uint32"}],"stateMutability":"view"},{"type":"function","name":"BASE_CHAIN_BRIDGE_ADDRESS","inputs":[],"outputs":[{"name":"","type":"string","internalType":"string"}],"stateMutability":"view"},{"type":"function","name":"BRIDGE","inputs":[],"outputs":[{"name":"","type":"address","internalType":"address"}],"stateMutability":"view"},{"type":"function","name":"FEE_RECIPIENT","inputs":[],"outputs":[{"name":"","type":"address","internalType":"address"}],"stateMutability":"view"},{"type":"function","name":"IBC_WITHDRAWAL_FEE","inputs":[],"outputs":[{"name":"","type":"uint256","internalType":"uint256"}],"stateMutability":"view"},{"type":"function","name":"SEQUENCER_WITHDRAWAL_FEE","inputs":[],"outputs":[{"name":"","type":"uint256","internalType":"uint256"}],"stateMutability":"view"},{"type":"function","name":"allowance","inputs":[{"name":"owner","type":"address","internalType":"address"},{"name":"spender","type":"address","internalType":"address"}],"outputs":[{"name":"","type":"uint256","internalType":"uint256"}],"stateMutability":"view"},{"type":"function","name":"approve","inputs":[{"name":"spender","type":"address","internalType":"address"},{"name":"value","type":"uint256","internalType":"uint256"}],"outputs":[{"name":"","type":"bool","internalType":"bool"}],"stateMutability":"nonpayable"},{"type":"function","name":"balanceOf","inputs":[{"name":"account","type":"address","internalType":"address"}],"outputs":[{"name":"","type":"uint256","internalType":"uint256"}],"stateMutability":"view"},{"type":"function","name":"claimFees","inputs":[],"outputs":[],"stateMutability":"nonpayable"},{"type":"function","name":"decimals","inputs":[],"outputs":[{"name":"","type":"uint8","internalType":"uint8"}],"stateMutability":"view"},{"type":"function","name":"mint","inputs":[{"name":"_to","type":"address","internalType":"address"},{"name":"_amount","type":"uint256","internalType":"uint256"}],"outputs":[],"stateMutability":"nonpayable"},{"type":"function","name":"name","inputs":[],"outputs":[{"name":"","type":"string","internalType":"string"}],"stateMutability":"view"},{"type":"function","name":"owner","inputs":[],"outputs":[{"name":"","type":"address","internalType":"address"}],"stateMutability":"view"},{"type":"function","name":"renounceOwnership","inputs":[],"outputs":[],"stateMutability":"nonpayable"},{"type":"function","name":"setFeeRecipient","inputs":[{"name":"_newFeeRecipient","type":"address","internalType":"address"}],"outputs":[],"stateMutability":"nonpayable"},{"type":"function","name":"setIbcWithdrawalFee","inputs":[{"name":"_newFee","type":"uint256","internalType":"uint256"}],"outputs":[],"stateMutability":"nonpayable"},{"type":"function","name":"setSequencerWithdrawalFee","inputs":[{"name":"_newFee","type":"uint256","internalType":"uint256"}],"outputs":[],"stateMutability":"nonpayable"},{"type":"function","name":"symbol","inputs":[],"outputs":[{"name":"","type":"string","internalType":"string"}],"stateMutability":"view"},{"type":"function","name":"totalSupply","inputs":[],"outputs":[{"name":"","type":"uint256","internalType":"uint256"}],"stateMutability":"view"},{"type":"function","name":"transfer","inputs":[{"name":"to","type":"address","internalType":"address"},{"name":"value","type":"uint256","internalType":"uint256"}],"outputs":[{"name":"","type":"bool","internalType":"bool"}],"stateMutability":"nonpayable"},{"type":"function","name":"transferFrom","inputs":[{"name":"from","type":"address","internalType":"address"},{"name":"to","type":"address","internalType":"address"},{"name":"value","type":"uint256","internalType":"uint256"}],"outputs":[{"name":"","type":"bool","internalType":"bool"}],"stateMutability":"nonpayable"},{"type":"function","name":"transferOwnership","inputs":[{"name":"newOwner","type":"address","internalType":"address"}],"outputs":[],"stateMutability":"nonpayable"},{"type":"function","name":"withdrawToIbcChain","inputs":[{"name":"_amount","type":"uint256","internalType":"uint256"},{"name":"_destinationChainAddress","type":"string","internalType":"string"},{"name":"_memo","type":"string","internalType":"string"}],"outputs":[],"stateMutability":"payable"},{"type":"function","name":"withdrawToSequencer","inputs":[{"name":"_amount","type":"uint256","internalType":"uint256"},{"name":"_destinationChainAddress","type":"string","internalType":"string"}],"outputs":[],"stateMutability":"payable"},{"type":"event","name":"Approval","inputs":[{"name":"owner","type":"address","indexed":true,"internalType":"address"},{"name":"spender","type":"address","indexed":true,"internalType":"address"},{"name":"value","type":"uint256","indexed":false,"internalType":"uint256"}],"anonymous":false},{"type":"event","name":"Ics20Withdrawal","inputs":[{"name":"sender","type":"address","indexed":true,"internalType":"address"},{"name":"amount","type":"uint256","indexed":true,"internalType":"uint256"},{"name":"destinationChainAddress","type":"string","indexed":false,"internalType":"string"},{"name":"memo","type":"string","indexed":false,"internalType":"string"}],"anonymous":false},{"type":"event","name":"Mint","inputs":[{"name":"account","type":"address","indexed":true,"internalType":"address"},{"name":"amount","type":"uint256","indexed":false,"internalType":"uint256"}],"anonymous":false},{"type":"event","name":"OwnershipTransferred","inputs":[{"name":"previousOwner","type":"address","indexed":true,"internalType":"address"},{"name":"newOwner","type":"address","indexed":true,"internalType":"address"}],"anonymous":false},{"type":"event","name":"SequencerWithdrawal","inputs":[{"name":"sender","type":"address","indexed":true,"internalType":"address"},{"name":"amount","type":"uint256","indexed":true,"internalType":"uint256"},{"name":"destinationChainAddress","type":"string","indexed":false,"internalType":"string"}],"anonymous":false},{"type":"event","name":"Transfer","inputs":[{"name":"from","type":"address","indexed":true,"internalType":"address"},{"name":"to","type":"address","indexed":true,"internalType":"address"},{"name":"value","type":"uint256","indexed":false,"internalType":"uint256"}],"anonymous":false},{"type":"error","name":"ERC20InsufficientAllowance","inputs":[{"name":"spender","type":"address","internalType":"address"},{"name":"allowance","type":"uint256","internalType":"uint256"},{"name":"needed","type":"uint256","internalType":"uint256"}]},{"type":"error","name":"ERC20InsufficientBalance","inputs":[{"name":"sender","type":"address","internalType":"address"},{"name":"balance","type":"uint256","internalType":"uint256"},{"name":"needed","type":"uint256","internalType":"uint256"}]},{"type":"error","name":"ERC20InvalidApprover","inputs":[{"name":"approver","type":"address","internalType":"address"}]},{"type":"error","name":"ERC20InvalidReceiver","inputs":[{"name":"receiver","type":"address","internalType":"address"}]},{"type":"error","name":"ERC20InvalidSender","inputs":[{"name":"sender","type":"address","internalType":"address"}]},{"type":"error","name":"ERC20InvalidSpender","inputs":[{"name":"spender","type":"address","internalType":"address"}]},{"type":"error","name":"OwnableInvalidOwner","inputs":[{"name":"owner","type":"address","internalType":"address"}]},{"type":"error","name":"OwnableUnauthorizedAccount","inputs":[{"name":"account","type":"address","internalType":"address"}]}],"bytecode":{"object":"0x60e060405234801561001057600080fd5b50604051611a00380380611a0083398101604081905261002f916102f0565b8484338061005857604051631e4fbdf760e01b8152600060048201526024015b60405180910390fd5b610061816101ad565b50600a61006e838261046e565b50600b61007b828261046e565b505050600061008e6101fd60201b60201c565b90508060ff168963ffffffff1611156101355760405162461bcd60e51b815260206004820152605e60248201527f41737472696142726964676561626c6545524332303a2062617365206368616960448201527f6e20617373657420707265636973696f6e206d757374206265206c657373207460648201527f68616e206f7220657175616c20746f20746f6b656e20646563696d616c730000608482015260a40161004f565b63ffffffff8916608052600161014b898261046e565b506002610158888261046e565b506101668960ff8316610543565b61017190600a61064d565b60c052506001600160a01b0398891660a052600392909255600455600580546001600160a01b0319169190971617909555506106669350505050565b600080546001600160a01b038381166001600160a01b0319831681178455604051919092169283917f8be0079c531659141344cd1fd0a4f28419497f9722a3daafe3b4186f6b6457e09190a35050565b601290565b80516001600160a01b038116811461021957600080fd5b919050565b805163ffffffff8116811461021957600080fd5b634e487b7160e01b600052604160045260246000fd5b600082601f83011261025957600080fd5b81516001600160401b038082111561027357610273610232565b604051601f8301601f19908116603f0116810190828211818310171561029b5761029b610232565b81604052838152602092508660208588010111156102b857600080fd5b600091505b838210156102da57858201830151818301840152908201906102bd565b6000602085830101528094505050505092915050565b60008060008060008060008060006101208a8c03121561030f57600080fd5b6103188a610202565b985061032660208b0161021e565b60408b01519098506001600160401b038082111561034357600080fd5b61034f8d838e01610248565b985060608c015191508082111561036557600080fd5b6103718d838e01610248565b975060808c015191508082111561038757600080fd5b6103938d838e01610248565b965060a08c01519150808211156103a957600080fd5b506103b68c828d01610248565b94505060c08a0151925060e08a015191506103d46101008b01610202565b90509295985092959850929598565b600181811c908216806103f757607f821691505b60208210810361041757634e487b7160e01b600052602260045260246000fd5b50919050565b601f821115610469576000816000526020600020601f850160051c810160208610156104465750805b601f850160051c820191505b8181101561046557828155600101610452565b5050505b505050565b81516001600160401b0381111561048757610487610232565b61049b8161049584546103e3565b8461041d565b602080601f8311600181146104d057600084156104b85750858301515b600019600386901b1c1916600185901b178555610465565b600085815260208120601f198616915b828110156104ff578886015182559484019460019091019084016104e0565b508582101561051d5787850151600019600388901b60f8161c191681555b5050505050600190811b01905550565b634e487b7160e01b600052601160045260246000fd5b63ffffffff8281168282160390808211156105605761056061052d565b5092915050565b600181815b808511156105a25781600019048211156105885761058861052d565b8085161561059557918102915b93841c939080029061056c565b509250929050565b6000826105b957506001610647565b816105c657506000610647565b81600181146105dc57600281146105e657610602565b6001915050610647565b60ff8411156105f7576105f761052d565b50506001821b610647565b5060208310610133831016604e8410600b8410161715610625575081810a610647565b61062f8383610567565b80600019048211156106435761064361052d565b0290505b92915050565b600061065f63ffffffff8416836105aa565b9392505050565b60805160a05160c05161135d6106a36000396000818161071101526109f50152600081816104dd0152610610015260006102ff015261135d6000f3fe60806040526004361061019c5760003560e01c806395d89b41116100ec578063db97dc981161008a578063ebd0905411610064578063ebd09054146104ab578063ee9a31a2146104cb578063f2fde38b146104ff578063fc88d31b1461051f57600080fd5b8063db97dc9814610430578063dd62ed3e14610445578063e74b981b1461048b57600080fd5b8063ad228247116100c6578063ad228247146103dd578063b6476c7e146103f3578063d294f09314610408578063d38fe9a71461041d57600080fd5b806395d89b4114610388578063a7eaa7391461039d578063a9059cbb146103bd57600080fd5b80635fe56b0911610159578063715018a611610133578063715018a6146102d85780637eb6dec7146102ed57806388973979146103365780638da5cb5b1461035657600080fd5b80635fe56b09146102795780636f46384a1461028c57806370a08231146102a257600080fd5b806306fdde03146101a1578063095ea7b3146101cc57806318160ddd146101fc57806323b872dd1461021b578063313ce5671461023b57806340c10f1914610257575b600080fd5b3480156101ad57600080fd5b506101b6610535565b6040516101c39190610ef4565b60405180910390f35b3480156101d857600080fd5b506101ec6101e7366004610f5f565b6105c7565b60405190151581526020016101c3565b34801561020857600080fd5b506009545b6040519081526020016101c3565b34801561022757600080fd5b506101ec610236366004610f89565b6105e1565b34801561024757600080fd5b50604051601281526020016101c3565b34801561026357600080fd5b50610277610272366004610f5f565b610605565b005b61027761028736600461100e565b6106e7565b34801561029857600080fd5b5061020d60035481565b3480156102ae57600080fd5b5061020d6102bd366004611088565b6001600160a01b031660009081526007602052604090205490565b3480156102e457600080fd5b506102776107c6565b3480156102f957600080fd5b506103217f000000000000000000000000000000000000000000000000000000000000000081565b60405163ffffffff90911681526020016101c3565b34801561034257600080fd5b506102776103513660046110aa565b6107da565b34801561036257600080fd5b506000546001600160a01b03165b6040516001600160a01b0390911681526020016101c3565b34801561039457600080fd5b506101b66107e7565b3480156103a957600080fd5b506102776103b83660046110aa565b6107f6565b3480156103c957600080fd5b506101ec6103d8366004610f5f565b610803565b3480156103e957600080fd5b5061020d60065481565b3480156103ff57600080fd5b506101b6610811565b34801561041457600080fd5b5061027761089f565b61027761042b3660046110c3565b6109cb565b34801561043c57600080fd5b506101b6610aa4565b34801561045157600080fd5b5061020d61046036600461110f565b6001600160a01b03918216600090815260086020908152604080832093909416825291909152205490565b34801561049757600080fd5b506102776104a6366004611088565b610ab1565b3480156104b757600080fd5b50600554610370906001600160a01b031681565b3480156104d757600080fd5b506103707f000000000000000000000000000000000000000000000000000000000000000081565b34801561050b57600080fd5b5061027761051a366004611088565b610adb565b34801561052b57600080fd5b5061020d60045481565b6060600a805461054490611142565b80601f016020809104026020016040519081016040528092919081815260200182805461057090611142565b80156105bd5780601f10610592576101008083540402835291602001916105bd565b820191906000526020600020905b8154815290600101906020018083116105a057829003601f168201915b5050505050905090565b6000336105d5818585610b19565b60019150505b92915050565b6000336105ef858285610b2b565b6105fa858585610ba9565b506001949350505050565b336001600160a01b037f000000000000000000000000000000000000000000000000000000000000000016146106965760405162461bcd60e51b815260206004820152602b60248201527f41737472696142726964676561626c6545524332303a206f6e6c79206272696460448201526a19d94818d85b881b5a5b9d60aa1b60648201526084015b60405180910390fd5b6106a08282610c08565b816001600160a01b03167f0f6798a560793a54c3bcfe86a93cde1e73087d944c0ea20544137d4121396885826040516106db91815260200190565b60405180910390a25050565b8460045480341461070a5760405162461bcd60e51b815260040161068d9061117c565b60006107367f0000000000000000000000000000000000000000000000000000000000000000846111ce565b116107535760405162461bcd60e51b815260040161068d906111f0565b3460066000828254610765919061128f565b9091555061077590503388610c42565b86336001600160a01b03167f0c64e29a5254a71c7f4e52b3d2d236348c80e00a00ba2e1961962bd2827c03fb888888886040516107b594939291906112d9565b60405180910390a350505050505050565b6107ce610c78565b6107d86000610ca5565b565b6107e2610c78565b600455565b6060600b805461054490611142565b6107fe610c78565b600355565b6000336105d5818585610ba9565b6002805461081e90611142565b80601f016020809104026020016040519081016040528092919081815260200182805461084a90611142565b80156108975780601f1061086c57610100808354040283529160200191610897565b820191906000526020600020905b81548152906001019060200180831161087a57829003601f168201915b505050505081565b6005546001600160a01b0316331461090b5760405162461bcd60e51b815260206004820152602960248201527f41737472696142726964676561626c6545524332303a206f6e6c7920666565206044820152681c9958da5c1a595b9d60ba1b606482015260840161068d565b6005546006546040516000926001600160a01b031691908381818185875af1925050503d806000811461095a576040519150601f19603f3d011682016040523d82523d6000602084013e61095f565b606091505b50509050806109c35760405162461bcd60e51b815260206004820152602a60248201527f41737472696142726964676561626c6545524332303a20666565207472616e7360448201526919995c8819985a5b195960b21b606482015260840161068d565b506000600655565b826003548034146109ee5760405162461bcd60e51b815260040161068d9061117c565b6000610a1a7f0000000000000000000000000000000000000000000000000000000000000000846111ce565b11610a375760405162461bcd60e51b815260040161068d906111f0565b3460066000828254610a49919061128f565b90915550610a5990503386610c42565b84336001600160a01b03167f0f4961cab7530804898499aa89f5ec81d1a73102e2e4a1f30f88e5ae3513ba2a8686604051610a9592919061130b565b60405180910390a35050505050565b6001805461081e90611142565b610ab9610c78565b600580546001600160a01b0319166001600160a01b0392909216919091179055565b610ae3610c78565b6001600160a01b038116610b0d57604051631e4fbdf760e01b81526000600482015260240161068d565b610b1681610ca5565b50565b610b268383836001610cf5565b505050565b6001600160a01b038381166000908152600860209081526040808320938616835292905220546000198114610ba35781811015610b9457604051637dc7a0d960e11b81526001600160a01b0384166004820152602481018290526044810183905260640161068d565b610ba384848484036000610cf5565b50505050565b6001600160a01b038316610bd357604051634b637e8f60e11b81526000600482015260240161068d565b6001600160a01b038216610bfd5760405163ec442f0560e01b81526000600482015260240161068d565b610b26838383610dca565b6001600160a01b038216610c325760405163ec442f0560e01b81526000600482015260240161068d565b610c3e60008383610dca565b5050565b6001600160a01b038216610c6c57604051634b637e8f60e11b81526000600482015260240161068d565b610c3e82600083610dca565b6000546001600160a01b031633146107d85760405163118cdaa760e01b815233600482015260240161068d565b600080546001600160a01b038381166001600160a01b0319831681178455604051919092169283917f8be0079c531659141344cd1fd0a4f28419497f9722a3daafe3b4186f6b6457e09190a35050565b6001600160a01b038416610d1f5760405163e602df0560e01b81526000600482015260240161068d565b6001600160a01b038316610d4957604051634a1406b160e11b81526000600482015260240161068d565b6001600160a01b0380851660009081526008602090815260408083209387168352929052208290558015610ba357826001600160a01b0316846001600160a01b03167f8c5be1e5ebec7d5bd14f71427d1e84f3dd0314c0f7b2291e5b200ac8c7c3b92584604051610dbc91815260200190565b60405180910390a350505050565b6001600160a01b038316610df5578060096000828254610dea919061128f565b90915550610e679050565b6001600160a01b03831660009081526007602052604090205481811015610e485760405163391434e360e21b81526001600160a01b0385166004820152602481018290526044810183905260640161068d565b6001600160a01b03841660009081526007602052604090209082900390555b6001600160a01b038216610e8357600980548290039055610ea2565b6001600160a01b03821660009081526007602052604090208054820190555b816001600160a01b0316836001600160a01b03167fddf252ad1be2c89b69c2b068fc378daa952ba7f163c4a11628f55a4df523b3ef83604051610ee791815260200190565b60405180910390a3505050565b60006020808352835180602085015260005b81811015610f2257858101830151858201604001528201610f06565b506000604082860101526040601f19601f8301168501019250505092915050565b80356001600160a01b0381168114610f5a57600080fd5b919050565b60008060408385031215610f7257600080fd5b610f7b83610f43565b946020939093013593505050565b600080600060608486031215610f9e57600080fd5b610fa784610f43565b9250610fb560208501610f43565b9150604084013590509250925092565b60008083601f840112610fd757600080fd5b50813567ffffffffffffffff811115610fef57600080fd5b60208301915083602082850101111561100757600080fd5b9250929050565b60008060008060006060868803121561102657600080fd5b85359450602086013567ffffffffffffffff8082111561104557600080fd5b61105189838a01610fc5565b9096509450604088013591508082111561106a57600080fd5b5061107788828901610fc5565b969995985093965092949392505050565b60006020828403121561109a57600080fd5b6110a382610f43565b9392505050565b6000602082840312156110bc57600080fd5b5035919050565b6000806000604084860312156110d857600080fd5b83359250602084013567ffffffffffffffff8111156110f657600080fd5b61110286828701610fc5565b9497909650939450505050565b6000806040838503121561112257600080fd5b61112b83610f43565b915061113960208401610f43565b90509250929050565b600181811c9082168061115657607f821691505b60208210810361117657634e487b7160e01b600052602260045260246000fd5b50919050565b60208082526032908201527f41737472696142726964676561626c6545524332303a20696e73756666696369604082015271656e74207769746864726177616c2066656560701b606082015260800190565b6000826111eb57634e487b7160e01b600052601260045260246000fd5b500490565b60208082526073908201527f41737472696142726964676561626c6545524332303a20696e7375666669636960408201527f656e742076616c75652c206d7573742062652067726561746572207468616e2060608201527f3130202a2a2028544f4b454e5f444543494d414c53202d20424153455f434841608082015272494e5f41535345545f505245434953494f4e2960681b60a082015260c00190565b808201808211156105db57634e487b7160e01b600052601160045260246000fd5b81835281816020850137506000828201602090810191909152601f909101601f19169091010190565b6040815260006112ed6040830186886112b0565b82810360208401526113008185876112b0565b979650505050505050565b60208152600061131f6020830184866112b0565b94935050505056fea2646970667358221220f16b01c094fb83be86cbeee778d197f34ab4876c412b7a05c3ac90bbac2de5b364736f6c63430008190033","linkReferences":{}},"methodIdentifiers":{"ACCUMULATED_FEES()":"ad228247","BASE_CHAIN_ASSET_DENOMINATION()":"b6476c7e","BASE_CHAIN_ASSET_PRECISION()":"7eb6dec7","BASE_CHAIN_BRIDGE_ADDRESS()":"db97dc98","BRIDGE()":"ee9a31a2","FEE_RECIPIENT()":"ebd09054","IBC_WITHDRAWAL_FEE()":"fc88d31b","SEQUENCER_WITHDRAWAL_FEE()":"6f46384a","allowance(address,address)":"dd62ed3e","approve(address,uint256)":"095ea7b3","balanceOf(address)":"70a08231","claimFees()":"d294f093","decimals()":"313ce567","mint(address,uint256)":"40c10f19","name()":"06fdde03","owner()":"8da5cb5b","renounceOwnership()":"715018a6","setFeeRecipient(address)":"e74b981b","setIbcWithdrawalFee(uint256)":"88973979","setSequencerWithdrawalFee(uint256)":"a7eaa739","symbol()":"95d89b41","totalSupply()":"18160ddd","transfer(address,uint256)":"a9059cbb","transferFrom(address,address,uint256)":"23b872dd","transferOwnership(address)":"f2fde38b","withdrawToIbcChain(uint256,string,string)":"5fe56b09","withdrawToSequencer(uint256,string)":"d38fe9a7"},"id":26}