{"abi":[{"type":"constructor","inputs":[{"name":"_bridge","type":"address","internalType":"address"},{"name":"_baseChainAssetPrecision","type":"uint32","internalType":"uint32"},{"name":"_baseChainBridgeAddress","type":"string","internalType":"string"},{"name":"_baseChainAssetDenomination","type":"string","internalType":"string"},{"name":"_name","type":"string","internalType":"string"},{"name":"_symbol","type":"string","internalType":"string"}],"stateMutability":"nonpayable"},{"type":"function","name":"BASE_CHAIN_ASSET_DENOMINATION","inputs":[],"outputs":[{"name":"","type":"string","internalType":"string"}],"stateMutability":"view"},{"type":"function","name":"BASE_CHAIN_ASSET_PRECISION","inputs":[],"outputs":[{"name":"","type":"uint32","internalType":"uint32"}],"stateMutability":"view"},{"type":"function","name":"BASE_CHAIN_BRIDGE_ADDRESS","inputs":[],"outputs":[{"name":"","type":"string","internalType":"string"}],"stateMutability":"view"},{"type":"function","name":"BRIDGE","inputs":[],"outputs":[{"name":"","type":"address","internalType":"address"}],"stateMutability":"view"},{"type":"function","name":"allowance","inputs":[{"name":"owner","type":"address","internalType":"address"},{"name":"spender","type":"address","internalType":"address"}],"outputs":[{"name":"","type":"uint256","internalType":"uint256"}],"stateMutability":"view"},{"type":"function","name":"approve","inputs":[{"name":"spender","type":"address","internalType":"address"},{"name":"value","type":"uint256","internalType":"uint256"}],"outputs":[{"name":"","type":"bool","internalType":"bool"}],"stateMutability":"nonpayable"},{"type":"function","name":"balanceOf","inputs":[{"name":"account","type":"address","internalType":"address"}],"outputs":[{"name":"","type":"uint256","internalType":"uint256"}],"stateMutability":"view"},{"type":"function","name":"decimals","inputs":[],"outputs":[{"name":"","type":"uint8","internalType":"uint8"}],"stateMutability":"view"},{"type":"function","name":"mint","inputs":[{"name":"_to","type":"address","internalType":"address"},{"name":"_amount","type":"uint256","internalType":"uint256"}],"outputs":[],"stateMutability":"nonpayable"},{"type":"function","name":"name","inputs":[],"outputs":[{"name":"","type":"string","internalType":"string"}],"stateMutability":"view"},{"type":"function","name":"symbol","inputs":[],"outputs":[{"name":"","type":"string","internalType":"string"}],"stateMutability":"view"},{"type":"function","name":"totalSupply","inputs":[],"outputs":[{"name":"","type":"uint256","internalType":"uint256"}],"stateMutability":"view"},{"type":"function","name":"transfer","inputs":[{"name":"to","type":"address","internalType":"address"},{"name":"value","type":"uint256","internalType":"uint256"}],"outputs":[{"name":"","type":"bool","internalType":"bool"}],"stateMutability":"nonpayable"},{"type":"function","name":"transferFrom","inputs":[{"name":"from","type":"address","internalType":"address"},{"name":"to","type":"address","internalType":"address"},{"name":"value","type":"uint256","internalType":"uint256"}],"outputs":[{"name":"","type":"bool","internalType":"bool"}],"stateMutability":"nonpayable"},{"type":"function","name":"withdrawToIbcChain","inputs":[{"name":"_amount","type":"uint256","internalType":"uint256"},{"name":"_destinationChainAddress","type":"string","internalType":"string"},{"name":"_memo","type":"string","internalType":"string"}],"outputs":[],"stateMutability":"nonpayable"},{"type":"function","name":"withdrawToSequencer","inputs":[{"name":"_amount","type":"uint256","internalType":"uint256"},{"name":"_destinationChainAddress","type":"string","internalType":"string"}],"outputs":[],"stateMutability":"nonpayable"},{"type":"event","name":"Approval","inputs":[{"name":"owner","type":"address","indexed":true,"internalType":"address"},{"name":"spender","type":"address","indexed":true,"internalType":"address"},{"name":"value","type":"uint256","indexed":false,"internalType":"uint256"}],"anonymous":false},{"type":"event","name":"Ics20Withdrawal","inputs":[{"name":"sender","type":"address","indexed":true,"internalType":"address"},{"name":"amount","type":"uint256","indexed":true,"internalType":"uint256"},{"name":"destinationChainAddress","type":"string","indexed":false,"internalType":"string"},{"name":"memo","type":"string","indexed":false,"internalType":"string"}],"anonymous":false},{"type":"event","name":"Mint","inputs":[{"name":"account","type":"address","indexed":true,"internalType":"address"},{"name":"amount","type":"uint256","indexed":false,"internalType":"uint256"}],"anonymous":false},{"type":"event","name":"SequencerWithdrawal","inputs":[{"name":"sender","type":"address","indexed":true,"internalType":"address"},{"name":"amount","type":"uint256","indexed":true,"internalType":"uint256"},{"name":"destinationChainAddress","type":"string","indexed":false,"internalType":"string"}],"anonymous":false},{"type":"event","name":"Transfer","inputs":[{"name":"from","type":"address","indexed":true,"internalType":"address"},{"name":"to","type":"address","indexed":true,"internalType":"address"},{"name":"value","type":"uint256","indexed":false,"internalType":"uint256"}],"anonymous":false},{"type":"error","name":"ERC20InsufficientAllowance","inputs":[{"name":"spender","type":"address","internalType":"address"},{"name":"allowance","type":"uint256","internalType":"uint256"},{"name":"needed","type":"uint256","internalType":"uint256"}]},{"type":"error","name":"ERC20InsufficientBalance","inputs":[{"name":"sender","type":"address","internalType":"address"},{"name":"balance","type":"uint256","internalType":"uint256"},{"name":"needed","type":"uint256","internalType":"uint256"}]},{"type":"error","name":"ERC20InvalidApprover","inputs":[{"name":"approver","type":"address","internalType":"address"}]},{"type":"error","name":"ERC20InvalidReceiver","inputs":[{"name":"receiver","type":"address","internalType":"address"}]},{"type":"error","name":"ERC20InvalidSender","inputs":[{"name":"sender","type":"address","internalType":"address"}]},{"type":"error","name":"ERC20InvalidSpender","inputs":[{"name":"spender","type":"address","internalType":"address"}]}],"bytecode":{"object":"0x60e06040523480156200001157600080fd5b50604051620013f6380380620013f6833981016040819052620000349162000272565b81816005620000448382620003df565b506006620000538282620003df565b5050506000620000686200017660201b60201c565b90508060ff168663ffffffff161115620001145760405162461bcd60e51b815260206004820152605e60248201527f41737472696142726964676561626c6545524332303a2062617365206368616960448201527f6e20617373657420707265636973696f6e206d757374206265206c657373207460648201527f68616e206f7220657175616c20746f20746f6b656e20646563696d616c730000608482015260a40160405180910390fd5b63ffffffff861660805260006200012c8682620003df565b5060016200013b8582620003df565b506200014b8660ff8316620004c1565b6200015890600a620005e7565b60c0525050506001600160a01b0390931660a0525062000602915050565b601290565b80516001600160a01b03811681146200019357600080fd5b919050565b805163ffffffff811681146200019357600080fd5b634e487b7160e01b600052604160045260246000fd5b600082601f830112620001d557600080fd5b81516001600160401b0380821115620001f257620001f2620001ad565b604051601f8301601f19908116603f011681019082821181831017156200021d576200021d620001ad565b816040528381526020925086838588010111156200023a57600080fd5b600091505b838210156200025e57858201830151818301840152908201906200023f565b600093810190920192909252949350505050565b60008060008060008060c087890312156200028c57600080fd5b62000297876200017b565b9550620002a76020880162000198565b60408801519095506001600160401b0380821115620002c557600080fd5b620002d38a838b01620001c3565b95506060890151915080821115620002ea57600080fd5b620002f88a838b01620001c3565b945060808901519150808211156200030f57600080fd5b6200031d8a838b01620001c3565b935060a08901519150808211156200033457600080fd5b506200034389828a01620001c3565b9150509295509295509295565b600181811c908216806200036557607f821691505b6020821081036200038657634e487b7160e01b600052602260045260246000fd5b50919050565b601f821115620003da57600081815260208120601f850160051c81016020861015620003b55750805b601f850160051c820191505b81811015620003d657828155600101620003c1565b5050505b505050565b81516001600160401b03811115620003fb57620003fb620001ad565b62000413816200040c845462000350565b846200038c565b602080601f8311600181146200044b5760008415620004325750858301515b600019600386901b1c1916600185901b178555620003d6565b600085815260208120601f198616915b828110156200047c578886015182559484019460019091019084016200045b565b50858210156200049b5787850151600019600388901b60f8161c191681555b5050505050600190811b01905550565b634e487b7160e01b600052601160045260246000fd5b63ffffffff828116828216039080821115620004e157620004e1620004ab565b5092915050565b600181815b80851115620005295781600019048211156200050d576200050d620004ab565b808516156200051b57918102915b93841c9390800290620004ed565b509250929050565b6000826200054257506001620005e1565b816200055157506000620005e1565b81600181146200056a5760028114620005755762000595565b6001915050620005e1565b60ff841115620005895762000589620004ab565b50506001821b620005e1565b5060208310610133831016604e8410600b8410161715620005ba575081810a620005e1565b620005c68383620004e8565b8060001904821115620005dd57620005dd620004ab565b0290505b92915050565b6000620005fb63ffffffff84168362000531565b9392505050565b60805160a05160c051610db6620006406000396000818161047701526105c60152600081816102830152610398015260006101d00152610db66000f3fe608060405234801561001057600080fd5b50600436106101005760003560e01c80637eb6dec711610097578063d38fe9a711610066578063d38fe9a71461022a578063db97dc981461023d578063dd62ed3e14610245578063ee9a31a21461027e57600080fd5b80637eb6dec7146101cb57806395d89b4114610207578063a9059cbb1461020f578063b6476c7e1461022257600080fd5b8063313ce567116100d3578063313ce5671461016b57806340c10f191461017a5780635fe56b091461018f57806370a08231146101a257600080fd5b806306fdde0314610105578063095ea7b31461012357806318160ddd1461014657806323b872dd14610158575b600080fd5b61010d6102bd565b60405161011a91906109b9565b60405180910390f35b610136610131366004610a23565b61034f565b604051901515815260200161011a565b6004545b60405190815260200161011a565b610136610166366004610a4d565b610369565b6040516012815260200161011a565b61018d610188366004610a23565b61038d565b005b61018d61019d366004610ad2565b61046f565b61014a6101b0366004610b4c565b6001600160a01b031660009081526002602052604090205490565b6101f27f000000000000000000000000000000000000000000000000000000000000000081565b60405163ffffffff909116815260200161011a565b61010d610513565b61013661021d366004610a23565b610522565b61010d610530565b61018d610238366004610b6e565b6105be565b61010d61065c565b61014a610253366004610bba565b6001600160a01b03918216600090815260036020908152604080832093909416825291909152205490565b6102a57f000000000000000000000000000000000000000000000000000000000000000081565b6040516001600160a01b03909116815260200161011a565b6060600580546102cc90610bed565b80601f01602080910402602001604051908101604052809291908181526020018280546102f890610bed565b80156103455780601f1061031a57610100808354040283529160200191610345565b820191906000526020600020905b81548152906001019060200180831161032857829003601f168201915b5050505050905090565b60003361035d818585610669565b60019150505b92915050565b60003361037785828561067b565b6103828585856106f9565b506001949350505050565b336001600160a01b037f0000000000000000000000000000000000000000000000000000000000000000161461041e5760405162461bcd60e51b815260206004820152602b60248201527f41737472696142726964676561626c6545524332303a206f6e6c79206272696460448201526a19d94818d85b881b5a5b9d60aa1b60648201526084015b60405180910390fd5b6104288282610758565b816001600160a01b03167f0f6798a560793a54c3bcfe86a93cde1e73087d944c0ea20544137d41213968858260405161046391815260200190565b60405180910390a25050565b84600061049c7f000000000000000000000000000000000000000000000000000000000000000083610c27565b116104b95760405162461bcd60e51b815260040161041590610c49565b6104c33387610792565b85336001600160a01b03167f0c64e29a5254a71c7f4e52b3d2d236348c80e00a00ba2e1961962bd2827c03fb878787876040516105039493929190610d11565b60405180910390a3505050505050565b6060600680546102cc90610bed565b60003361035d8185856106f9565b6001805461053d90610bed565b80601f016020809104026020016040519081016040528092919081815260200182805461056990610bed565b80156105b65780601f1061058b576101008083540402835291602001916105b6565b820191906000526020600020905b81548152906001019060200180831161059957829003601f168201915b505050505081565b8260006105eb7f000000000000000000000000000000000000000000000000000000000000000083610c27565b116106085760405162461bcd60e51b815260040161041590610c49565b6106123385610792565b83336001600160a01b03167f0f4961cab7530804898499aa89f5ec81d1a73102e2e4a1f30f88e5ae3513ba2a858560405161064e929190610d43565b60405180910390a350505050565b6000805461053d90610bed565b61067683838360016107c8565b505050565b6001600160a01b0383811660009081526003602090815260408083209386168352929052205460001981146106f357818110156106e457604051637dc7a0d960e11b81526001600160a01b03841660048201526024810182905260448101839052606401610415565b6106f3848484840360006107c8565b50505050565b6001600160a01b03831661072357604051634b637e8f60e11b815260006004820152602401610415565b6001600160a01b03821661074d5760405163ec442f0560e01b815260006004820152602401610415565b61067683838361088f565b6001600160a01b0382166107825760405163ec442f0560e01b815260006004820152602401610415565b61078e6000838361088f565b5050565b6001600160a01b0382166107bc57604051634b637e8f60e11b815260006004820152602401610415565b61078e8260008361088f565b6001600160a01b0384166107f25760405163e602df0560e01b815260006004820152602401610415565b6001600160a01b03831661081c57604051634a1406b160e11b815260006004820152602401610415565b6001600160a01b03808516600090815260036020908152604080832093871683529290522082905580156106f357826001600160a01b0316846001600160a01b03167f8c5be1e5ebec7d5bd14f71427d1e84f3dd0314c0f7b2291e5b200ac8c7c3b9258460405161064e91815260200190565b6001600160a01b0383166108ba5780600460008282546108af9190610d5f565b9091555061092c9050565b6001600160a01b0383166000908152600260205260409020548181101561090d5760405163391434e360e21b81526001600160a01b03851660048201526024810182905260448101839052606401610415565b6001600160a01b03841660009081526002602052604090209082900390555b6001600160a01b03821661094857600480548290039055610967565b6001600160a01b03821660009081526002602052604090208054820190555b816001600160a01b0316836001600160a01b03167fddf252ad1be2c89b69c2b068fc378daa952ba7f163c4a11628f55a4df523b3ef836040516109ac91815260200190565b60405180910390a3505050565b600060208083528351808285015260005b818110156109e6578581018301518582016040015282016109ca565b506000604082860101526040601f19601f8301168501019250505092915050565b80356001600160a01b0381168114610a1e57600080fd5b919050565b60008060408385031215610a3657600080fd5b610a3f83610a07565b946020939093013593505050565b600080600060608486031215610a6257600080fd5b610a6b84610a07565b9250610a7960208501610a07565b9150604084013590509250925092565b60008083601f840112610a9b57600080fd5b50813567ffffffffffffffff811115610ab357600080fd5b602083019150836020828501011115610acb57600080fd5b9250929050565b600080600080600060608688031215610aea57600080fd5b85359450602086013567ffffffffffffffff80821115610b0957600080fd5b610b1589838a01610a89565b90965094506040880135915080821115610b2e57600080fd5b50610b3b88828901610a89565b969995985093965092949392505050565b600060208284031215610b5e57600080fd5b610b6782610a07565b9392505050565b600080600060408486031215610b8357600080fd5b83359250602084013567ffffffffffffffff811115610ba157600080fd5b610bad86828701610a89565b9497909650939450505050565b60008060408385031215610bcd57600080fd5b610bd683610a07565b9150610be460208401610a07565b90509250929050565b600181811c90821680610c0157607f821691505b602082108103610c2157634e487b7160e01b600052602260045260246000fd5b50919050565b600082610c4457634e487b7160e01b600052601260045260246000fd5b500490565b60208082526073908201527f41737472696142726964676561626c6545524332303a20696e7375666669636960408201527f656e742076616c75652c206d7573742062652067726561746572207468616e2060608201527f3130202a2a2028544f4b454e5f444543494d414c53202d20424153455f434841608082015272494e5f41535345545f505245434953494f4e2960681b60a082015260c00190565b81835281816020850137506000828201602090810191909152601f909101601f19169091010190565b604081526000610d25604083018688610ce8565b8281036020840152610d38818587610ce8565b979650505050505050565b602081526000610d57602083018486610ce8565b949350505050565b8082018082111561036357634e487b7160e01b600052601160045260246000fdfea26469706673582212207a0b6fc70a8b24097cde3412c1aebd5b925b4a8baeda8123416e385e441f809464736f6c63430008150033","linkReferences":{}},"methodIdentifiers":{"BASE_CHAIN_ASSET_DENOMINATION()":"b6476c7e","BASE_CHAIN_ASSET_PRECISION()":"7eb6dec7","BASE_CHAIN_BRIDGE_ADDRESS()":"db97dc98","BRIDGE()":"ee9a31a2","allowance(address,address)":"dd62ed3e","approve(address,uint256)":"095ea7b3","balanceOf(address)":"70a08231","decimals()":"313ce567","mint(address,uint256)":"40c10f19","name()":"06fdde03","symbol()":"95d89b41","totalSupply()":"18160ddd","transfer(address,uint256)":"a9059cbb","transferFrom(address,address,uint256)":"23b872dd","withdrawToIbcChain(uint256,string,string)":"5fe56b09","withdrawToSequencer(uint256,string)":"d38fe9a7"},"id":25}